:020000040800F2
:10000000080D00200D020008B10600087F05000859
:10001000AD0600088D030008950F000800000000E1
:10002000000000000000000000000000150B0008A8
:100030004D040008000000001F0A00082502000807
:1000400027020008270200082702000827020008EC
:1000500027020008270200082702000827020008DC
:1000600027020008270200082702000827020008CC
:1000700027020008270200082702000827020008BC
:1000800027020008270200082702000827020008AC
:10009000270200082702000827020008270200089C
:1000A000270200082702000827020008270200088C
:1000B000270200082702000827020008270200087C
:1000C000270200082702000827020008270200086C
:1000D00027020008850D00082702000827020008F3
:1000E000270200082702000827020008270200084C
:1000F000270200082702000827020008270200083C
:10010000270200082702000827020008270200082B
:100110002702000827020008890C000827020008AF
:10012000270200082702000827020008270200080B
:1001300000F002F800F05AF80AA090E8000C82449F
:100140008344AAF10107DA4501D100F04FF8AFF27C
:10015000090EBAE80F0013F0010F18BFFB1A43F0A5
:1001600001031847441A0000641A00000A444FF0C3
:10017000000C10F8013B13F0070408BF10F8014B06
:100180001D1108BF10F8015B641E05D010F8016B4B
:10019000641E01F8016BF9D113F0080F1EBF10F8AF
:1001A000014BAD1C0C1B09D16D1E58BF01F801CBD2
:1001B000FAD505E014F8016B01F8016B6D1EF9D555
:1001C0009142D6D37047000000230024002500266A
:1001D000103A28BF78C1FBD8520728BF30C148BFAA
:1001E0000B6070471FB51FBD10B510BD00F06EF855
:1001F0001146FFF7F7FF00F09BFF00F0A0F803B4F3
:10020000FFF7F2FF03BC00F01DFF00000948804724
:1002100009480047FEE7FEE7FEE7FEE7FEE7FEE7E8
:10022000FEE7FEE7FEE7FEE704480549054A064B00
:1002300070470000290C0008310100080807002061
:10024000080D002008090020080900207047000060
:100250000FB4044910B503AA029800F009F810BCC5
:100260005DF814FB840500207047704770477047A5
:10027000074B70B50D467B4400F011F80446284644
:1002800000F020F810B14FF0FF3070BD204670BD77
:10029000630E000001694A1C02610878704700B5CE
:1002A0008FB0CDE901310021059105497944CDE9AF
:1002B00003101146684600F02EF80FB000BD000094
:1002C000E5FFFFFF007B00F080007047754600F0FF
:1002D0003DF8AE4605006946534620F007008546C6
:1002E00018B020B5FFF7A0FFBDE820404FF0000692
:1002F0004FF000074FF000084FF0000B21F007010E
:10030000AC46ACE8C009ACE8C009ACE8C009ACE850
:10031000C0098D4670472DE9F04106460024D6E914
:100320000170F5688046304603E04146B847641CDA
:100330003046A8470028F8D12046BDE8F0810446A1
:10034000AFF300802046FFF75AFF000000487047D7
:10035000A806002008B50121042000F061FB4FF43D
:100360000060ADF8000010208DF8030001208DF82A
:1003700002006946034800F06AF80120024908605B
:1003800008BD000000080140AC01214200BFFEE7AB
:1003900029490888C11700EB91718910A0EB8101F0
:1003A00039B925490988642291FBF2F302FB131144
:1003B000C1B9214909884FF4C87291FBF2F302FBDD
:1003C000131139B91C490988D20091FBF2F302FBE1
:1003D000131139B918490988184A91FBF2F302FB45
:1003E000131119B91D211648016302E01C2114489C
:1003F000016314480088401EC0EBC000104901EBA7
:100400008000406910490988884207DA01200E49B6
:1004100008800C480088401C0A4908800948008868
:100420000C2807DD01200749088003480088401C8C
:1004300001490880704700002604002000A3020044
:100440002C040020280400202A04002070472DE9F5
:10045000F04102460025002600200023002400274A
:1004600091F803C00CF00F0591F803C00CF0100CCC
:10047000BCF1000F03D091F802C04CEA050591F8D9
:1004800000C0BCF1000F31D0146800202BE04FF009
:10049000010C0CFA00F3B1F800C00CEA03069E420E
:1004A00020D183004FF00F0C0CFA03F7BC4305FA80
:1004B00003FC4CEA040491F803C0BCF1280F06D1F8
:1004C0004FF0010C0CFA00FCC2F814C00AE091F8DD
:1004D00003C0BCF1480F05D14FF0010C0CFA00FC31
:1004E000C2F810C0401C0828D1D31460B1F800C075
:1004F000BCF1FF0F34DD546800202EE000F1080C41
:100500004FF0010808FA0CF3B1F800C00CEA03063A
:100510009E4221D183004FF00F0C0CFA03F7BC432D
:1005200005FA03FC4CEA040491F803C0BCF1280F5F
:1005300005D100F1080C08FA0CF8C2F8148091F803
:1005400003C0BCF1480F07D100F1080C4FF00108BF
:1005500008FA0CF8C2F81080401C0828CED354606A
:10056000BDE8F0810246002093680B400BB10120EA
:1005700000E000207047416170470161704700BF93
:10058000FEE7000010B520210748FFF7F6FF8021A5
:100590000548FFF7F2FF80210348FFF7ECFF202119
:1005A0000148FFF7E8FF10BD0008014010B5202109
:1005B0000548FFF7E2FF80210348FFF7DCFF8021B9
:1005C0000148FFF7DAFF10BD0008014010B52021F7
:1005D0000348FFF7D2FF20210148FFF7CCFF10BDF1
:1005E0000008014008B50121082000F019FAF020A8
:1005F000ADF8000048208DF8030001208DF80200BE
:1006000069460248FFF723FF08BD0000000C0140C7
:1006100010B5044614B10120224908702148007821
:1006200048B310212048FFF79DFF48B120211E4804
:10063000FFF798FF20B140211B48FFF793FFD0B987
:100640000A2000F025FD00201649087010211648E8
:10065000FFF788FF08B9012010BD20211248FFF7DD
:1006600081FF08B90220F7E740210F48FFF77AFF22
:10067000A8B90320F0E710210B48FFF773FF01280A
:100680000DD120210848FFF76DFF012807D1402137
:100690000548FFF767FF012801D1024908700020D3
:1006A000DAE700007C050020000C014000BFFEE7F7
:1006B0007047000070B5002100230F22C47804B3F6
:1006C000154C246804F4E064C4F5E064210AC1F127
:1006D0000403CA40447804FA03F1847814402143A7
:1006E00009010E4C0678A155047804F01F05012479
:1006F000AC4005786D11AD0005F1E025C5F800416D
:1007000009E0047804F01F050124AC40044D06788C
:10071000761145F8264070BD0CED00E000E400E0E5
:1007200080E100E070B5002418E004F1B000002181
:1007300000F069F90021084600F065F90021102059
:1007400000F061F9002505E00121002000F05BF9CF
:10075000681CC5B2802DF7DB601CC4B2082CE4DB3A
:1007600070BD000008B50121042000F059F9A02057
:10077000ADF8000010208DF8030003208DF8020072
:1007800069463C48FFF763FEA0213A48FFF7F5FEB3
:100790004FF4487000F07CFC0021AE2000F033F9EB
:1007A0000021084600F02FF90021102000F02BF95D
:1007B0000021402000F027F90021B02000F023F9AB
:1007C0000021812000F01FF90021FF2000F01BF91B
:1007D0000021A12000F017F90021A62000F013F954
:1007E0000021A82000F00FF900213F2000F00BF9B4
:1007F0000021C82000F007F90021D32000F003F900
:100800000021084600F0FFF80021D52000F0FBF899
:100810000021802000F0F7F80021D82000F0F3F844
:100820000021052000F0EFF80021D92000F0EBF8BE
:100830000021F12000F0E7F80021DA2000F0E3F8D1
:100840000021122000F0DFF80021DB2000F0DBF8AF
:100850000021302000F0D7F800218D2000F0D3F8DF
:100860000021142000F0CFF80021AF2000F0CBF8D9
:1008700008BD00000008014070B504460D4605F1B2
:10088000B000002100F0BFF8102141EA141000214F
:1008900000F0B9F804F00F00002100F0B4F870BDCA
:1008A0002DE9F04707460E4690469946002500245C
:1008B000A8F12000C5B27F2F02DD0027B01CC6B210
:1008C000B9F1100F24D131463846FFF7D5FF002487
:1008D00008E004EB0511194A505C012100F093F87F
:1008E000601CC4B2082CF4DB701CC1B23846FFF7A0
:1008F000C3FF002409E004EB051108310F4A505CE6
:10090000012100F080F8601CC4B2082CF3DB12E077
:1009100031463846FFF7B0FF00240AE005EB4501F9
:10092000074A02EB4101085D012100F06CF8601CF0
:10093000C4B2062CF2DBBDE8F0870000B815000851
:10094000901300082DE9FF5F074691461E460E9D55
:100950004FF0000A002435E0301B401EC1B20A20CF
:1009600000F040FCB9FBF0F00A21B0FBF1F201FB12
:100970001208BAF1000F14D1701EA04211DDB8F1B7
:10098000000F0CD1AB4605EBDB71491001FB047184
:10099000C8B22B4620220199FFF782FF10E04FF0EA
:1009A000010AAB4605EBDB71491001FB0471C8B2CB
:1009B00008F13001CAB22B460199FFF771FF00BF61
:1009C000601CC4B2B442C7DBBDE8FF9F2DE9F04113
:1009D00004460F461546984600260FE0AA5D43469A
:1009E00039462046FFF75CFF04F10800C4B2782CBA
:1009F00002DD0024B81CC7B2701CC6B2A85D002876
:100A0000ECD1BDE8F08170B504460D461DB1E0B2F1
:100A100000F002FB02E0E0B200F0E8FA70BD7047BF
:100A200029B1064A92690243044B9A6104E0034AE1
:100A300092698243014B9A617047000000100240A6
:100A400030B500210022002400232D4D6D6805F0F3
:100A50000C0121B1042905D0082923D105E0294D35
:100A6000056022E0274D05601FE0254D6D6805F407
:100A70007012234D6D6805F48034022505EB924217
:100A80001CB9214D554305600BE01D4D6D6805F403
:100A900000351DB11C4D5543056002E0194D55430D
:100AA000056002E0174D056000BF00BF144D6D6882
:100AB00005F0F0010909154D6B5C0568DD404560E6
:100AC0000F4D6D6805F4E061090A104D6B5C4568D7
:100AD000DD4085600A4D6D6805F46051C90A0B4D13
:100AE0006B5C4568DD40C560054D6D6805F44041AF
:100AF000890B074D6B5CC568B5FBF3F5056130BD2F
:100B00000010024000127A0000093D008B05002011
:100B10009B050020704710B500F002F810BD0000E2
:100B20000CB50020019000903348006840F48030FC
:100B30003149086000BF3048006800F40030009080
:100B40000198401C0190009818B90198B0F5A06F69
:100B5000F1D12948006800F4003010B10120009064
:100B600001E0002000900098012843D1234800684C
:100B700040F01000214908600846006820F003009A
:100B800008600846006840F0020008601A484068A3
:100B9000194948600846406848600846406840F483
:100BA000806048600846406820F47C104860084631
:100BB000406840F4E81048600846006840F08070E3
:100BC000086000BF0C48006800F000700028F9D0F1
:100BD0000948406820F0030007494860084640681B
:100BE00040F00200486000BF0348406800F00C007D
:100BF0000828F9D10CBD000000100240002002407E
:100C0000042808D14FF0E021096941F004014FF0B8
:100C1000E022116107E04FF0E021096921F00401B1
:100C20004FF0E0221161704710B51348006840F0A2
:100C300001001149086008464068104908400E4903
:100C40004860084600680E4908400B49086008469D
:100C5000006820F4802008600846406820F4FE0008
:100C600048604FF41F008860FFF755FF4FF00060A9
:100C70000449086010BD0000001002400000FFF8A9
:100C8000FFFFF6FE08ED00E010B50121104800F06E
:100C90002AF8D8B101210E4800F022F80D4800884A
:100CA000401C0C4908800846008840F2E631884222
:100CB0000CDD182000F028F807480078172805DB1D
:100CC000064800783A2801DBFFF762FB10BD000000
:100CD00000100040200400202204002023040020F3
:100CE000CA430282704730B5024600200023002428
:100CF000158A05EA0103958905EA010413B10CB1CF
:100D0000012000E0002030BD19490988B1F57A7F43
:100D100007DB0021164A118016490978491C154A3B
:100D20001170144909783C2907DB0021114A117020
:100D300011490978491C104A11700F4909783C295A
:100D400007DB00210C4A11700C490978491C0B4A39
:100D500011700A490978814209DB182807D100215E
:100D6000064A117006490988491C054A11807047D6
:100D7000200400202404002023040020220400205A
:100D80002A04002010B540F225510E4800F042F828
:100D9000B0B10D480078402802DB00200A490870F5
:100DA0000848001D0088C1B2074802780078401C3E
:100DB000054B1870054881542021024800F008F8BE
:100DC00010BD0000003801408A05002068060020A0
:100DD00001F40072B2F5007F00D100BFCA43028067
:100DE000704721B1828942F40052828104E08289F5
:100DF0004DF6FF731A408281704702460020B1F51C
:100E0000007F00D100BF13880B400BB1012000E030
:100E10000020704770B50246002400230025002002
:100E200040F66A16B14200D100BFC1F3421501F08D
:100E30001F03012606FA03F3012D02D196893340E0
:100E400006E0022D02D1168A334001E0968A334033
:100E50000C12012606FA04F41688344013B10CB1C2
:100E6000012000E0002070BDF0B5034600240026FC
:100E70000025002040F66A17B94200D100BF18468D
:100E8000C1F3421401F01F06012707FA06F5012CF1
:100E900001D10C3004E0022C01D1103000E01430FC
:100EA0001AB107682F43076002E00768AF43076085
:100EB000F0BD00002DE9F04786B005460E4600243F
:100EC000A24600BFA1460027B08900B100BF2F464F
:100ED0002C8A4CF6FF700440F08804432C82AC89C5
:100EE0004EF6F3100440B0883189084371890843F5
:100EF0000443AC81AC8A4FF6FF400440B089044300
:100F0000AC8201A8FFF79CFD1F48874202D1DDF8A3
:100F100010A001E0DDF80CA0A88900F4004040B169
:100F20000AEBCA0000EB0A1031684900B0FBF1F887
:100F300007E00AEBCA0000EB0A1031688900B0FB39
:100F4000F1F86420B8FBF0F004012009642101FBF2
:100F50001089A88900F4004040B1322000EBC9009C
:100F6000B0FBF1F000F00700044308E0322000EB92
:100F700009106421B0FBF1F000F00F0004432C8154
:100F800006B0BDE8F087000000380140C1F3080258
:100F90008280704700BFFEE72DE9F04105462C46F0
:100FA00020211148FFF7E7FA002619E0274607F04D
:100FB0008007802F04D180210B48FFF7DEFA03E081
:100FC00080210948FFF7D7FA6006040E2021064861
:100FD000FFF7D3FA20210448FFF7CDFA701CC6B200
:100FE000082EE3DBBDE8F0810008014010B504469F
:100FF000FFF7C8FA7820FFF7CFFFFFF7E7FA0020E6
:10100000FFF7CAFFFFF7E2FA2046FFF7C5FFFFF739
:10101000DDFAFFF7CBFA10BD10B50446FFF7B2FAC0
:101020007820FFF7B9FFFFF7D1FA4020FFF7B4FFB0
:10103000FFF7CCFA2046FFF7AFFFFFF7C7FAFFF73D
:10104000B5FA10BD014600BF7047000010B56FF043
:101050000400FFF7D5FD0A4800680A49B0FBF1F02B
:10106000094908700846007800EB4001C1EBC01048
:101070004FF6FF7101EAC0000449088010BD00006E
:101080000C04002000127A007E050020800500205C
:101090000146114A12884A434FF0E0235A61002268
:1010A0009A611A46126942F001021A6100BF4FF0BC
:1010B000E022106900F001021AB100F48032002A27
:1010C000F5D04FF0E022126922F001024FF0E02348
:1010D0001A6100229A6170478005002000BF054A0E
:1010E000128802F04002002AF9D0C2B2014B1B1D47
:1010F0001A8070470038014010B500240CE00A48FF
:10110000015D0A48FFF742FF00BF40210748FFF793
:1011100074FE0028F9D0641C092CF0DB0A20FFF7CC
:10112000B7FF00F06BF810BD02040020003801404A
:1011300000F004F801E000F073F8FCE710B5FFF7E9
:1011400085FFFFF70FFBFFF705F9FFF7EBFAFFF756
:1011500049FA4FF4165000F0CBF815A0FFF778F8D5
:10116000FFF7CAFF00241DE0FFF7DCFAC820FFF7F5
:101170008FFF102312A204211420FFF727FCC820A0
:10118000FFF786FF102311A204211420FFF71EFC95
:10119000C820FFF77DFF10230FA204211420FFF7C2
:1011A00015FC641C032CDFDBFFF7BCFA10BD00004C
:1011B0007765636F6D6520746F204448543131004A
:1011C00053595320496E69742E000000535953201F
:1011D000496E69742E2E000053595320496E69746C
:1011E0002E2E2E0010B50246012000E050430B00C9
:1011F000A1F10104E1B2F9D110BD00000548007869
:1012000030B10548C07805490870002001490870D0
:10121000704700008A0500206806002000040020B6
:10122000012411E0641C00BF00F040F80A20B4FB68
:10123000F0F100FB114008B900F008F8641CC4F399
:101240000E046420FFF724FFECE7000008B5FFF769
:1012500053FF10480078401C0E49087010230EA25E
:1012600000210846FFF7B2FB10230EA2042119202B
:10127000FFF7ACFB1020022300900B4802780421FA
:101280003C20FFF75FFB1820FFF73EFDFFF780F8DB
:1012900008BD000024040020323032322F30362FB7
:1012A00030310000543A00000004002010B5002046
:1012B000FFF7AEF90446012C04D0022C08D0032C11
:1012C0000ED109E0012009490870FFF737FF0BE054
:1012D00013200649087007E0FB200449087003E06A
:1012E0000A20FFF7D5FE00BF00BF10BD000400209C
:1012F00010B586B00446012144F20400FFF790FBCC
:101300004FF40070ADF8140003208DF8160018207B
:101310008DF8170005A91C48FFF799F84FF4806075
:10132000ADF8140004208DF8170005A91648FFF742
:101330008EF825208DF8000003208DF801008DF82F
:10134000020001208DF803006846FFF7B3F901940D
:101350000020ADF80800ADF80A00ADF80C00ADF8BB
:1013600010000C20ADF80E0001A90848FFF7A2FDFF
:10137000012240F225510548FFF776FD012103487F
:10138000FFF72FFD06B010BD0008014000380140F6
:101390000000000000000000002F00000000070017
:1013A000070000147F147F1400242A7F2A12006291
:1013B000640813230036495522500000050300003D
:1013C00000001C224100000041221C000014083EC5
:1013D00008140008083E0808000000A0600000088B
:1013E00008080808000060600000002010080402DF
:1013F000003E5149453E0000427F4000004261519D
:101400004946002141454B31001814127F10002736
:1014100045454539003C4A494930000171090503F9
:1014200000364949493600064949291E000036362A
:10143000000000005636000000081422410000148D
:10144000141414140000412214080002015109066A
:1014500000324959513E007C1211127C007F4949EB
:101460004936003E41414122007F4141221C007F1C
:1014700049494941007F09090901003E4149497A2A
:10148000007F0808087F0000417F410000204041A4
:101490003F01007F08142241007F40404040007F10
:1014A000020C027F007F0408107F003E4141413E54
:1014B000007F09090906003E4151215E007F09199C
:1014C00029460046494949310001017F0101003F99
:1014D0004040403F001F2040201F003F4038403F19
:1014E000006314081463000708700807006151497D
:1014F000454300007F41410000552A552A55000010
:1015000041417F000004020102040040404040408D
:10151000000001020400002054545478007F484425
:10152000443800384444442000384444487F00385C
:101530005454541800087E0901020018A4A4A47C85
:10154000007F080404780000447D4000004080844F
:101550007D00007F102844000000417F4000007C97
:1015600004180478007C08040478003844444438A3
:1015700000FC242424180018242418FC007C0804EF
:10158000040800485454542000043F444020003CC8
:101590004040207C001C2040201C003C4030403C4F
:1015A000004428102844001CA0A0A07C00446454DF
:1015B0004C44141414141414000000000000000023
:1015C0000000000000000000000000F80000000023
:1015D000000000333000000000100C06100C060064
:1015E000000000000000000040C07840C0784000CB
:1015F000043F04043F040400007088FC083000002D
:10160000001820FF211E0000F008F000E018000084
:1016100000211C031E211E0000F00888700000003D
:101620001E2123241927211010160E00000000008F
:101630000000000000000000000000E018040200AC
:10164000000000071820400000020418E00000001D
:101650000040201807000000404080F0804040001B
:101660000202010F01020200000000F00000000071
:101670000101011F01010100000000000000000045
:1016800080B07000000000000000000000000000BA
:101690000001010101010101000000000000000043
:1016A00000303000000000000000000080601804DE
:1016B000006018060100000000E010080810E000BB
:1016C000000F102020100F00001010F80000000084
:1016D0000020203F202000000070080808887000CB
:1016E000003028242221300000300888884830004B
:1016F0000018202020110E000000C02010F800006B
:1017000000070424243F240000F808888808080003
:101710000019212020110E0000E010888818000018
:10172000000F112020110E0000380808C8380800EA
:101730000000003F0000000000708808088870006A
:10174000001C222121221C0000E010080810E000EB
:101750000000312222110F00000000C0C000000074
:101760000000003030000000000000800000000099
:101770000000806000000000000080402010080091
:10178000000102040810200040404040404040005A
:101790000404040404040400000810204080000035
:1017A0000020100804020100007048080808F0003A
:1017B0000000003036010000C030C828E810E0000A
:1017C0000718272423140B000000C038E000000095
:1017D000203C23020227382008F8888888700000FF
:1017E000203F202020110E00C030080808083800D3
:1017F000071820202010080008F808080810E0004A
:10180000203F202020100F0008F88888E8081000EA
:10181000203F20202320180008F88888E8081000BE
:10182000203F200003000000C030080808380000F6
:1018300007182020221E020008F808000008F808F7
:10184000203F210101213F20000808F8080800007E
:101850000020203F2020000000000808F8080800B1
:10186000C08080807F00000008F888C02818080029
:10187000203F20012638200008F808000000000062
:10188000203F20202020300008F8F800F8F8080059
:10189000203F003F003F200008F830C00008F80853
:1018A000203F200007183F00E01008080810E00063
:1018B0000F10202020100F0008F808080808F0007A
:1018C000203F210101010000E01008080810E0009D
:1018D0000F18242438504F0008F888888888700032
:1018E000203F2000030C30200070880808083800D2
:1018F0000038202121221C00180808F808081800C8
:101900000000203F2000000008F808000008F80848
:10191000001F202020201F000878880000C83808F9
:10192000000007380E010000F80800F80008F80071
:10193000033C0700073C030008186880806818080B
:1019400020302C03032C30200838C800C838080089
:101950000000203F2000000010080808C8380800D8
:101960002038262120201800000000FE020202007C
:101970000000007F40404000000C30C0000000002C
:10198000000000010638C00000020202FE00000054
:10199000004040407F0000000000040202020400FA
:1019A0000000000000000000000000000000000037
:1019B000808080808080808000020204000000001F
:1019C0000000000000000000000080808080000017
:1019D0000019242222223F2008F800808000000005
:1019E000003F112020110E000000008080800000C8
:1019F000000E112020201100000000808088F800D7
:101A0000000E112020103F20000080808080000008
:101A1000001F222222221300008080F0888888186C
:101A20000020203F20200000000080808080800077
:101A3000006B94949493600008F80080808000000C
:101A4000203F210000203F200080989800000000E7
:101A50000020203F20200000000000809898000017
:101A600000C08080807F000008F800008080800037
:101A7000203F24022D302000000808F8000000005C
:101A80000020203F20200000808080808080800017
:101A9000203F20003F20003F8080008080800000A9
:101AA000203F210000203F20000080808080000037
:101AB000001F202020201F00808000808000000068
:101AC00080FFA12020110E00000000808080800097
:101AD000000E112020A0FF80808080008080800088
:101AE00020203F21200001000000808080808000B5
:101AF0000033242424241900008080E0808000002A
:101B00000000001F20200000808000000080800076
:101B1000001F202020103F208080800000808080D7
:101B200000010E3008060100808000800080808067
:101B30000F300C030C300F0000808000808080008C
:101B40000020312E0E3120008080800000808080B7
:101B500080818E7018060100008080808080800067
:101B60000021302C2221300000000000807C020285
:101B700000000000003F404000000000FF000000A7
:101B800000000000FF0000000002027C8000000056
:101B90000040403F00000000000601010202040472
:101BA0000000000000000000C81B0008000000202A
:101BB000A00500006C010008841D0008A00500209D
:101BC00068070000C80100081116060AFE0AC612BE
:101BD000E012F062F84EFE7DBBC7EF01053EC7BBC9
:101BE0007DFE300D080CFEFE0C082060FEFE60201D
:101BF0008F7848FE82BABA0309135EAA0101017EFA
:101C00006CFEFF0301CBFFFF0F39BBECC0C0C02748
:101C10001918F92701392975990B6CFFFF0C014937
:101C20001A0C22E1E1E12701396C0F1F1801FB1F9B
:101C30000F0F092E270136168C4222120C26FC02A9
:101C40000202FC3304FE16205844FE402A100159BB
:101C500012491E4912A92A0123300A24A42E24E481
:101C6000242EA424C00AF84A4C48F8484C4AF82AC2
:101C700001013907490D5915991F99180914127155
:101C80002BC020A1AB20C00A11300A120A07027F24
:101C900002070A121E0B0A0A0A7F0402560B980A50
:101CA0001F2040404050205F800A2154FF018622BF
:101CB000797CA24A04C52008020304060708091417
:101CC000143B3A14E4070212151F4A616E756172E3
:101CD00028611C6A616E54292C319D466562721D13
:101CE00024666562321C3202A64D617263684C6DD7
:101CF0006172383203A6417072696C1B61701C32CC
:101D00001E29897B4D616C4938190F29383205B578
:101D10004A756E651B6A758C29383A061CAA6C399F
:101D20001B6A756129382A07708E75677573747020
:101D30004B75671C3208180953657074656D6265D0
:101D400083414C7365705432097D4F63746F1A215F
:101D50001B6F63442938320A9C4E6F7637114C6EE4
:101D60006F7638320BAC4465631C4C646563383263
:101D70000C0212012D0102030404100906070809D0
:041D8000020406084B
:040000050800020DE0
:00000001FF
