:100C1D0073797320696E69742E2E2E00746573744A
:100C2D00200D0A0054454D500048554D49004C4388
:100C3D00443136303220636865636B206F6B00740E
:100C4D00657374203D2000000102030405060708AA
:010C5D00098D
:100A4300D2F8120D14D2AF7F0A7E00120CD553B127
:100A5300FE53B2FE53B1FD43B2025395FE439601DA
:100A6300C2A053C9EF53CAEF7A0C7B3BE4FDFF12DC
:100A73000B1E7A0C7B4C7D017F02120B1E120DF0B4
:100A83007F0A7E00120CD57A0C7B1DE4FD7F0112D8
:100A93000B1EC2A012080012093F120DBE120DD781
:100AA300120CB47BFF7A0C7929120C5E7FE87E036B
:050AB300120CD580DDEE
:10093F00900009E0243090000FF090000AE024307E
:10094F00900010F090000BE02430900011F0900018
:10095F000CE02430900012F07F01120E047A0C7B11
:10096F0031E4FD7F01120B1E90000FE0FB7D017F34
:10097F0001120C91900010E0FB7D017F02120C918F
:10098F007A0C7B36E4FD7F08120B1E90001AE024D0
:10099F0030FB7D017F07120C9190001BE02430FB90
:1009AF007D017F09120C91900019E02430FB7D012D
:0509BF007F0A020C910B
:100CD500E4FDFCC3ED9FEC9E5015E4FBFA0BBB0055
:0F0CE500010ABA06F8BB2CF50DBD00010C80E426
:010CF40022DD
:050E5100007F21DFFE1F
:010E56002279
:100E0400C2B5C2B48FE87F017E00120CD5D2B2C243
:020E1400B22208
:100E1600D2B5C2B48FE87F017E00120CD5D2B2C221
:020E2600B222F6
:100DF0007F38120E047F0C120E047F06120E047F41
:040E000001020E04D9
:100C9100900018EBF0ED5401FDEF540FFFED6004EF
:100CA100EF4440FFEF4480FF120E04900018E0FF74
:030CB100020E161A
:100B1E00900015EAF0A3EBF0900013EFF0FEA3EDBA
:010B2E00F0D6
:100B2F00E4900017F0ED5401900014F0EE540F9084
:100B3F000013F0900017E0F9900015E0FEA3E029F4
:100B4F00F582E43EF583E493FBD39419401E9000A5
:100B5F0013E0FFD3940F50DBA3E0FD120C91900034
:0C0B6F0017E004F0900013E004F080C7D1
:010B7B002257
:100D330054656D70657261747572653A0020202088
:0E0D43000048756D69646974793A000D0A0004
:050CF500900016EFF075
:100CFA00E4A3F0900016E0FFA3E0C39F500B120E8E
:090D0A0051900017E004F080EAAA
:010D130022BD
:100AB800E4900015F0900014F030F8FD7F04120C5B
:100AC800F530F82020F8FD900015E0FF900014E0C4
:100AD800FEC374079EFE7401A806088002C333D8BB
:100AE800FC4F801C900015E0FF900014E0FEC374DA
:100AF800079EFE7401A806088002C333D8FCF45F81
:100B0800900015F0900014E004F0E0C3940840A9A8
:050B1800900015E0FF54
:010B1D0022B5
:10080000C2F87F147E00120CD5D2F87F03120CF5CB
:1008100030F8030208A730F8FD20F8FD120AB8905E
:100820000006EFF0120AB890000DEFF0120AB8902F
:100830000007EFF0120AB8900008EFF0120AB89023
:10084000000EEFF0D2F8900008E0F9900007E0FE0B
:1008500029FD900006E0FC2DFD90000DE0FB2DB57C
:100860000718900011ECF0A3EBF090000FEEF0A34E
:10087000E9F090000EE0900013F090000FE0FF759B
:10088000F00A84900009F0EF75F00A84A3E5F0F017
:10089000900011E0FF75F00A8490000BF0EF75F006
:1008A0000A84A3E5F0F022E4900009F0A3F0A3F09D
:0208B000A3F0B3
:0108B2002223
:1009C4007E007F037D007B017A007900120BAB7EF1
:1009D400007F037D007B017A007903120BAB1208C0
:1009E40000900009E02430900000F090000AE02418
:1009F40030900001F090000BE02430900003F09060
:100A0400000CE02430900004F07BFF7A0D7933125F
:100A14000C5E7B017A007900120C5E7BFF7A0D7903
:100A240040120C5E7BFF7A0D7944120C5E7B017AD6
:0F0A3400007903120C5E7BFF7A0D794E020C5E87
:100D140053873F759850438E40538EFE53890F433B
:0F0D24008920758BDC758DDCC2ABD28ED2AC22F0
:080E49008F993099FDC2992236
:100C5E0090000FEBF0A3EAF0A3E9F090000FE0FB99
:100C6E00A3E0FAA3E0F9120B7C601790000FA3E447
:100C7E0075F001120B95A9F0FA120B7CFF120E49BA
:030C8E0080D922E8
:060E5700AE07120E492255
:03002300020E28A2
:0F0E2800C2AC309802C298309902C299D2AC3253
:040E5D004100190136
:100CB40030CC1D900019E0F4F07F0A7E00120CD5B0
:100CC40030CC0D7F03120D6D20CCFD7F03120D88F7
:010CD40022FD
:100DBE0020B60B90001A7401F07F03020D6DE490C3
:090DCE00001AF07F03120D8822C7
:100D5100D2A07F03120D6D7FE87E03120CD5C2A0D5
:0C0D61007F03120D887FE87E03020CD592
:100DD70020B70B90001B7401F07F03020D6DE490A8
:090DE700001BF07F03120D8822AD
:100D6D00EF24FE600D14600D14600D2403700BC292
:0B0D7D00A622C2A722C2FA22C2F9225D
:100D8800EF24FE600D14600D14600D2403700BD267
:0B0D9800A622D2A722D2FA22D2F92212
:100DA300EF24FE600D14600D14600D2403700BB26C
:0B0DB300A622B2A722B2FA22B2F92257
:090E3700C2A6C2A7C2FAC2F92248
:090E4000D2A6D2A7D2FAD2F922FF
:100BD700120E407F01120D6D7F2C7E01120CD51273
:100BE7000E407F02120D6D7F2C7E01120CD5120E66
:100BF700407F03120D6D7F2C7E01120CD5120E4023
:100C07007F04120D6D7F2C7E01120CD5120E407FD2
:060C17002C7E01020CD549
:030000000208B340
:0C08B300787FE4F6D8FD7581070208FA92
:100B7C00BB010689828A83E0225002E722BBFE0277
:090B8C00E32289828A83E49322AA
:100B9500A3F8E0C5F025F0F0E58215827002158313
:060BA500E0C838F0E82270
:100BAB00EF4E6012EF60010EEDBB010B89828A8361
:100BBB00F0A3DFFCDEFA2289F05007F709DFFCA96E
:0C0BCB00F022BBFEFCF309DFFCA9F022C5
:1008BF00020A43E493A3F8E493A34003F68001F202
:1008CF0008DFF48029E493A3F85407240CC8C3333A
:1008DF00C4540F4420C8834004F456800146F6DF09
:1008EF00E4800B0102040810204080900E5DE47E2E
:1008FF00019360BCA3FF543F30E509541FFEE493FE
:10090F00A360010ECF54C025E060A840B8E493A3C4
:10091F00FAE493A3F8E493A3C8C582C8CAC583CAEF
:10092F00F0A3C8C582C8CAC583CADFE9DEE780BEA7
:010E61000090
:00000001FF
