:020000040800F2
:10000000000900202D020008D51700080B16000873
:10001000D1170008191400081D2200080000000074
:10002000000000000000000000000000C11D0008EA
:10003000D914000800000000471B00084502000812
:10004000470200084702000847020008470200086C
:10005000470200084702000847020008470200085C
:10006000470200084702000847020008470200084C
:10007000470200084702000847020008470200083C
:10008000470200084702000847020008470200082C
:10009000470200084702000847020008470200081C
:1000A000470200084702000847020008470200080C
:1000B00047020008470200084702000847020008FC
:1000C00047020008470200084702000847020008EC
:1000D00047020008312000084702000847020008D4
:1000E00047020008470200084702000847020008CC
:1000F00047020008470200084702000847020008BC
:1001000047020008470200084702000847020008AB
:100110004702000847020008351F00084702000890
:10012000470200084702000847020008470200088B
:1001300000F002F800F06AF80AA090E8000C82448F
:100140008344AAF10107DA4501D100F05FF8AFF26C
:10015000090EBAE80F0013F0010F18BFFB1A43F0A5
:100160000103184798330000B83300000A444FF0E9
:10017000000C10F8013B13F0070408BF10F8014B06
:100180001D1108BF10F8015B641E05D010F8016B4B
:10019000641E01F8016BF9D113F0080F1EBF10F8AF
:1001A000014BAD1C0C1B09D16D1E58BF01F801CBD2
:1001B000FAD505E014F8016B01F8016B6D1EF9D555
:1001C0009142D6D37047000000230024002500266A
:1001D000103A28BF78C1FBD8520728BF30C148BFAA
:1001E0000B607047662902F01385782900F074804F
:1001F000002070471FB500F0B3FB04000020002171
:1002000002F09AFAE0601FBD10B510BD00F0C0FC0E
:100210001146FFF7EFFF02F0D1F800F0DEFC03B467
:10022000FFF7F2FF03BC02F070F8000009488047B6
:1002300009480047FEE7FEE7FEE7FEE7FEE7FEE7C8
:10024000FEE7FEE7FEE7FEE704480549054A064BE0
:1002500070470000D51E000831010008000300208F
:100260000009002000050020000500207047000064
:100270000FB4044910B503AA029800F05FFB10BC4C
:100280005DF814FB7C01002070B5044685690068A8
:10029000C10601D5302600E02026C00707D070BD7A
:1002A000D4E9012130469047206A401C20626D1E2F
:1002B000F6D570BD70B5044685690078C00707D1D2
:1002C00070BDD4E9012120209047206A401C2062A3
:1002D0006D1EF6D570BD000070B504460D46214672
:1002E0001068AFF300802188090502D50F4A7A44CF
:1002F00002E00E4A7A440E32002104F1240305E0A4
:1003000000F00F060009965D5E54491C0028F7D1E5
:1003100020780023000704D5702D02D009B10223F4
:1003200011322046BDE8704000F0A2B83A3100001A
:100330002DE9F05F894604464FF0000ADFF824B14A
:10034000FB44C0F820A02046E168884700287DD003
:10035000252806D0D4E901219047206A401C20625C
:10036000F1E700255F462046E168884720280646D9
:1003700007DB312E05D2B81910F8200C08B105435F
:10038000F1E7A80701D525F00405C4F81CA0002753
:10039000C4F818A02A2E09D0304601F0AFFF38B3B8
:1003A00004EB8708303EC8F8186019E059F8041BC0
:1003B000204604EB87029161E1688847012F0646D9
:1003C00018D1E069002820DA25F020051DE0D8F8D2
:1003D000180000EB800006EB40003038C8F8180029
:1003E0002046E1688847064601F088FF0028EED1E4
:1003F000012F0AD02E2E08D12046E16888477F1CA5
:100400000646022F45F02005C4DBA069002803DA68
:10041000404245F00105A061E80701D025F0100534
:10042000A6B1A6F14100192802D8203645F400658E
:100430004A463146204625604D46FFF7D3FE60B15F
:10044000012807D0ED1D25F0070000E007E000F1CE
:10045000080978E705F1040975E730467AE7206A6C
:10046000BDE8F09F1031000070477047704770473B
:100470002DE9F0470D4699469246044600F12408BE
:100480000168880604D5E06921F01001216000E0D0
:100490000120A84201DD471B00E00027A1697A196D
:1004A00002EB0900081AA0612078C00602D4204699
:1004B000FFF7EAFE002608E0D4E901211AF8060059
:1004C0009047206A401C761C20624E45F4DB207861
:1004D000C0060AD52046FFF7D7FE06E0D4E9012181
:1004E00030209047206A401C2062381EA7F1010787
:1004F000F4DC07E0D4E9012118F805009047206AF0
:10050000401C2062281EA5F10105F3DC2046FFF700
:10051000D1FE2078000602D50220BDE8F087012038
:10052000FBE770472DE9FF4F0C461E464FF0FF37A3
:100530008BB0D2E90001DDF860800A908A46C1F3F1
:100540000A5505B93D46002108464FF00000BAF1B2
:10055000000F00F4400005DA00EB80004FF440018A
:1005600001EA50004FEA9059B9F1010F00DDB94698
:100570000A9850EA4A000ED044F61050A5F2FF3512
:1005800045432F14B8F1000F1ED07542291E1EDD01
:10059000C9F100021CE0B8F1010F4FF0000001D0DA
:1005A000302103E0F24305E02154401CB042FBDB64
:1005B00030460022002121540B99C1F80880C1E97E
:1005C00000200FB0BDE8F08FBD1B6D1CDEE74A4672
:1005D00000DA694206A800F065FA06AB93E8070066
:1005E00003AB83E8070050460A9900F03DFB8DE815
:1005F0000700A0F500501F3800900398002D09DD7A
:1006000042F21F014A46084403A90390684600F0DD
:100610009CFD08E0A0F500504A461F3803A903904E
:10062000684600F0A6FD8DE807000004000C03D02A
:100630004FF0FF30410800E01046B8F1000F03D042
:100640000022009215461EE0751E05D400F08CF9BC
:10065000303262556D1EF9D5B3460122084302D0EF
:1006600000227F1C04E02078302801D100227F1E68
:10067000002A099786D01DE0112D07DA00F074F9E1
:10068000303262556D1C50EA0102F5D1084302D0A8
:100690000098C8B10EE00021681E05E0235C625C92
:1006A00063542254401E491C8142F7DBAB46A81B11
:1006B000401E0990002004F80B000B98099AC0F81E
:1006C0000880C0E9002B7CE711264FF0000859E7AD
:1006D0002DE9F04F88460446D21D22F0070191B063
:1006E000D1E90001CDE90A0101F0F4FD02460B98C1
:1006F000C00F01D02D2007E02068810701D52B20F5
:1007000002E0202101EAC000032A099001D0072A53
:1007100005DB03464146204600F084F90BE12078D2
:10072000800601D5E06900E00620B8F1650F81463A
:1007300006D0B8F1660F18D0B8F1670F70D131E06C
:100740000020B9F1110F009001DB112301E009F144
:1007500001030AAA01A90CA8FFF7E4FEDDE90C7069
:10076000002609F10105834647E001204B46009031
:100770004FF000470AAA01A90CA8FFF7D3FEDDE954
:100780000DB00C995D46002610B909F101000D1855
:10079000B9EB050003D4C0F1FF3609F10105A5EB63
:1007A00009002BE0B9F1010F01DA4FF00109002037
:1007B000B9F1110F0090484601DD112300E0034616
:1007C0000AAA01A90CA8FFF7ADFEDDE90C704D46A1
:1007D00000268346207800070AD4AB4500DA5D4640
:1007E00001A8012D04DD411911F8011C302907D0A1
:1007F0004F4502DA17F1040F04DA012082460FE0B8
:100800006D1EEEE7002F02DCED1B3E4403E0781C7A
:10081000A84200DD7D1CB81B00F1010A4FF0004723
:100820002078000703D4AA4501DB4FF0FF3A0021EE
:10083000B7F1004F0DF143088DF8431024D002208A
:100840002B23002F01DA7F422D230A21021EA0F163
:10085000010000DC5FB197FBF1FC97FBF1F201FBBB
:100860001C7C17460CF1300C08F801CDEEE7A8F11E
:10087000010003702188090501D5452100E06521AB
:10088000A0F1010800F8011C09980FA9A1EB0807C5
:10089000FF1D00B10120411901EBEA70A169384444
:1008A000081A401EA0612078C00602D42046FFF737
:1008B000EBFC099828B1D4E901219047206A401C3B
:1008C00020622078C00622D52046FFF7DDFC1EE01E
:1008D000002E04DBB34502DD01A8805D00E030207E
:1008E000D4E901219047206A401C2062761CAAF1BD
:1008F00001005FEA000A0AD100F032F8C06801681E
:10090000405CD4E901219047206A401C2062281EE7
:10091000A5F10105DCDC07E0D4E9012118F8010BA1
:100920009047206A401C2062381EA7F10107F3DCC3
:100930002046FFF7BFFC032011B043E6074B70B51C
:100940000D467B4400F05BF80446284600F018F999
:1009500010B14FF0FF3070BD204670BD5B1A000033
:1009600000487047C002002030B5B0F10A024FEADB
:10097000900E71F100034EEA817EB0EB0E0061EB48
:1009800091014FEA101E4EEA017E10EB0E0041EB82
:1009900011114FEA102E4EEA016E10EB0E0041EBE2
:1009A00011214FEA104E4EEA014E10EB0E0041EBC2
:1009B0001141401841F100014FEAD00040EA417076
:1009C0004FEAD10110EB80054FEA810444EA9074AC
:1009D00044EB01046D1944EB0404521BA3414FF096
:1009E000000348BF0A3200D530BD401C41F1000170
:1009F00030BD000001694A1C02610878704700B5EB
:100A00008FB0CDE901310021059105497944CDE947
:100A1000031011466846FFF78BFC0FB000BD0000C5
:100A2000E5FFFFFF2DE9F0411F460446032601685C
:100A3000072A01F4006004DB08B116A505E016A53D
:100A400003E008B115A500E015A521F01000206015
:100A5000A069C01EA0610FB1401EA0612046FFF733
:100A600013FC4FB1D4E9012138469047206A401C5D
:100A70002062C01C206206E0206AFAE7D4E9012166
:100A800015F8010B9047761EF8D22046FFF712FCAE
:100A9000BDE8F0814E414E006E616E00494E460049
:100AA000696E66002DE9F047814616468AB03348E4
:100AB00078440DC88DE80D0030487844801C03ACA4
:100AC0000DC884E80D0041F69B300844372190FBA7
:100AD000F1F290FBF1F5A5F1800501FB12041B3C3E
:100AE00002D56442012000E00020DFF890A080469B
:100AF0000027FA44AAF1BE0A0DE0E00709D0324609
:100B0000684607EB47010AEB810100F032FB8DE8F4
:100B1000070064107F1C002CEFD1184F7F44AC3FBE
:100B200018E0E80714D007EB04100DF1180A90E85C
:100B30000E008AE80E00C068F04201D198190890B2
:100B4000324606A903A800F014FB03AB83E80700B4
:100B50006D10641C002DE4D132466946B8F1000FD7
:100B600003A802D000F0F1FA01E000F002FBC9E9AD
:100B70000001C9F808200AB0BDE8F087302A00005B
:100B8000007B00F08000704700487047A002002002
:100B90007546FFF7F9FFAE4605006946534620F05B
:100BA0000700854618B020B5FFF74EFBBDE8204092
:100BB0004FF000064FF000074FF000084FF0000B19
:100BC00021F00701AC46ACE8C009ACE8C009ACE8CC
:100BD000C009ACE8C0098D4670470446AFF30080F9
:100BE0002046FFF71CFB00004FF0013C50F8042B9F
:100BF00051F8043B9A4221D1A2EB0C03934313EA30
:100C0000CC1317D150F8042B51F8043B9A4215D15C
:100C1000A2EB0C03934313EACC130BD150F8042B33
:100C200051F8043B9A4209D1A2EB0C03934313EA17
:100C3000CC13DBD04FF00000704700BFD01A01BAD0
:100C4000B1FA81F101F0180122FA01F0CB40C1F1B3
:100C50002001DBB2C0B2C01A2CFA01F3D11A9143C1
:100C600011EAC311E6D170475FEA400C08BF91F06A
:100C7000000F4FEA8C234FEAC12243EA51514FEA59
:100C80001C5018BF00F5F0404FEA300018BF41F08B
:100C900000415FEA6C5C00F02980BCF1FF3F08BFB7
:100CA00040F080407047130C06BF12044FF0100C48
:100CB0004FF0000C130E04BF12020CF1080C130FBE
:100CC00004BF12010CF1040C930F04BF92000CF14D
:100CD000020CD30F04BF52000CF1010C11464FF06F
:100CE0000002A0F11F00A0EB0C00704711F0004FB4
:100CF00008BF704731F000413FF4D5AF0B0C06BF81
:100D000009044FF0100C4FF0000C0B0E04BF090249
:100D10000CF1080C0B0F04BF09010CF1040C8B0F34
:100D200004BF89000CF1020CCB0F04BF49000CF189
:100D3000010CCCF12003A0EB0C0022FA03F302FA21
:100D40000CF241EA030100F10100704720F07F4CF2
:100D500080EA030023F07F47ACEB070303F57C53E5
:100D600000F0004003F1FF032DE980494FEA154BE5
:100D700009B44FEA144325EA0B4E24EA03480FF264
:100D8000042606EB132749083E785FEA320203FB8C
:100D90000667C7F5000707FB06F64FEA54374FEA28
:100DA000D64606F1020607FB066CCCF1005C4FEA62
:100DB0001C472CEA074C07FB06F40CFB06F504EB7A
:100DC00015464FEA961634BF00204FF000404FEA18
:100DD000D13706FB07FC4FEA1C4C0CFB0BF7D21B70
:100DE00003FB0CF761EB07010CFB0EF7B0EB0740C0
:100DF00072EB17420CFB08F734BFA2EB0742B2EBD1
:100E0000074261EB17414FEA0C444FEA910706FB9A
:100E100007FC4FEA1C4C0CFB0BF7B0EBC74072EB26
:100E2000573203FB0CF734BFA2EBC742B2EBC74209
:100E300061EB57310CFB0EF7B0EBC70072EB57724A
:100E40000CFB08F734BFA2EBC702B2EBC70261EBA1
:100E50005771039F4FEA816141EA921104EBCC0480
:100E60004FEAD1374FEA826206FB07FC42EA901252
:100E70004FEA80604FEA1C4C0CFB0BF7D21B03FBC4
:100E80000CF761EB07010CFB0EF7B0EB074072EBC0
:100E900017420CFB08F734BFA2EB0742B2EB074244
:100EA00061EB17414FEA8C554FEA910704EB9C2404
:100EB00006FB07FC4FEA1C4C0CFB0BF7B0EBC740E2
:100EC00072EB573203FB0CF734BFA2EBC742B2EB15
:100ED000C74261EB57310CFB0EF7B0EBC70072EB6A
:100EE00057720CFB08F734BFA2EBC702B2EBC70284
:100EF00061EB577115EB4C254FEA816141EA921184
:100F00004FEA82624FEAD13742EA901206FB07FCB1
:100F100044F100044FEA80604FEA1C4C0CFB0BF7D5
:100F2000D21B03FB0CF761EB07010CFB0EF7B0EBD8
:100F3000074072EB17420CFB08F734BFA2EB0742E5
:100F4000B2EB074261EB174115EB1C154FEA8131FB
:100F500041EA92414FEA823242EA90424FEA8030BF
:100F60004FEA0C7644F1000448EA03434EEA0B488A
:100F70004FF0000EB2EB080C71EB030724BF624682
:100F800039464EEB0E0E4FF0000B0018524149410E
:100F90004BEB0B0BB2EB080C71EB03077BF1000B77
:100FA00024BF624639464EEB0E0E4FF0000B001880
:100FB000524149414BEB0B0BB2EB080C71EB0307B1
:100FC0007BF1000B24BF624639464EEB0E0E51EA10
:100FD000020718BF46F0010616EB0E7655F1000227
:100FE00054F1000103D5BDE88901BDE80088BDE8E2
:100FF0008901BDE80048B619524141EB0101A3F156
:101000000103704780807F7E7D7C7B7A797877765C
:1010100076757473727171706F6E6E6D6C6C6B6AD5
:101020006A69686867666665646463636261616073
:10103000605F5F5E5E5D5D5C5C5B5B5A5A595958F0
:10104000585757565655555554545353525252515A
:10105000515050504F4F4F4E4E4D4D4D4C4C4C4BB0
:101060004B4B4A4A4A4949494848484747474746F7
:101070004646454545444444444343434342424233
:1010800042414141002B26D4770021D01CB54FEAC4
:10109000370703B44FF010004FF010014FF000007D
:1010A0000FBCBDE810400BF1010BBBF1010F08BFF5
:1010B0005FEA170722BF12F1010211F101014FF09F
:1010C000004143F1000300F0004043EA0000704794
:1010D000F9D35708DAE746EA064613F1400F4FEA1C
:1010E00016461FDD13F1200FDFBF16430A4600210D
:1010F00020335B42C8D0C3F1200746EA064602FA15
:1011000007F74FEA164646EA0706C3F1200722FA18
:1011100003F201FA07F721FA03F14FF0000342EA64
:101120000702B1E746EA020646EA06464FEA1646D5
:1011300046EA0106BCBF46EA0646360C4FF00003FD
:101140004FF000024FF000019EE72DE9C0489346A2
:1011500030B491E8380007C831EA400C48BF34EA9F
:10116000430C03D5FFF7F2FDFFF78CFFF0BCBDE8A1
:1011700000882DE9C048934630B491E8380007C88C
:1011800010F0804F08BF13F0804F03D100F005F836
:10119000FFF778FFF0BCBDE8008820F07F4780EAC9
:1011A000030023F07F4C07EB0C03A3F57C5300F006
:1011B0000040A3F1FE0392F0000F00F0B38095F021
:1011C000000F00F077802DE901494FEA11404FEA06
:1011D000144621EA004800FB06FC24EA064708FB07
:1011E00006F607FB08F800FB07F718EB06484CEB80
:1011F000164C4FEA124B18EB07484FEA15464CEBDA
:10120000174022EA0B4E0BFB06FC25EA06470EFBB5
:1012100006F607FB0EFE0BFB07F71EEB064E4CEB2C
:10122000164C4FF000061EEB074E4CEB174B18EB1D
:101230000B0840F1000018EB0E0B58EB000840F1D2
:1012400000008F1A4FF000013CBFC943661B14BF5A
:10125000B5EB040C00213CBFC943F61B4FEA174411
:101260004EEA8E0E27EA04454FEA1C4704FB07624C
:101270002CEA074C05FB07F70CFB05F604FB0CFCFE
:1012800016EB074642EB174216EB0C4642EB1C42AC
:101290001BEB060658EB0202414146EA9E0601D5C9
:1012A000BDE80189B619524141EB0101A3F10103E7
:1012B000BDE801894FEA14454FEA114724EA054683
:1012C00021EA074C05FB07F406FB07F70CFB06F1C8
:1012D00005FB0CFC11EB074144EB17444FEA1247A6
:1012E00011EB0C4144EB1C4422EA074C05FB07F2CE
:1012F00006FB07F70CFB06F605FB0CFC16EB074696
:1013000042EB174216EB0C4642EB1C456A1854F1AF
:10131000000148BF7047B619524141EB0101A3F1EA
:101320000103704795F0000F37D04FEA11424FEAA2
:10133000144721EA024624EA074C02FB07F106FBA8
:1013400007F70CFB06F402FB0CFC14EB074441EB23
:1013500017414FEA154714EB0C4441EB1C4125EAB9
:10136000074C02FB07F506FB07F70CFB06F602FB32
:101370000CFC16EB074645EB174516EB0C4645EB08
:101380001C42121951F1000148BF7047B619524171
:1013900041EB0101A3F1010370474FEA14454FEA05
:1013A000114724EA054621EA074C05FB07F106FB35
:1013B00007F70CFB06F24FF0000605FB0CFC12EBE6
:1013C000074241EB174112EB0C4251EB1C4148BF65
:1013D0007047921841EB0101A3F10103704700002F
:1013E00008B50121042000F0AFFB4FF40060ADF818
:1013F000000010208DF8030001208DF802006946DE
:10140000034800F06AF801200249086008BD0000A6
:1014100000080140AC01214200BFFEE729490888CD
:10142000C11700EB91718910A0EB810139B92549F1
:101430000988642291FBF2F302FB1311C1B921491F
:1014400009884FF4C87291FBF2F302FB131139B90A
:101450001C490988D20091FBF2F302FB131139B940
:1014600018490988184A91FBF2F302FB131119B9C4
:101470001D211648016302E01C2114480163144831
:101480000088401EC0EBC000104901EB800040699D
:1014900010490988884207DA01200E4908800C4863
:1014A0000088401C0A490880094800880C2807DD8C
:1014B00001200749088003480088401C0149088032
:1014C000704700001A00002000A302002000002046
:1014D0001C0000201E00002070472DE9F04102464C
:1014E00000250026002000230024002791F803C0D7
:1014F0000CF00F0591F803C00CF0100CBCF1000FBC
:1015000003D091F802C04CEA050591F800C0BCF187
:10151000000F31D0146800202BE04FF0010C0CFAC2
:1015200000F3B1F800C00CEA03069E4220D183000C
:101530004FF00F0C0CFA03F7BC4305FA03FC4CEA1E
:10154000040491F803C0BCF1280F06D14FF0010C40
:101550000CFA00FCC2F814C00AE091F803C0BCF118
:10156000480F05D14FF0010C0CFA00FCC2F810C076
:10157000401C0828D1D31460B1F800C0BCF1FF0FA3
:1015800034DD546800202EE000F1080C4FF0010813
:1015900008FA0CF3B1F800C00CEA03069E4221D110
:1015A00083004FF00F0C0CFA03F7BC4305FA03FC61
:1015B0004CEA040491F803C0BCF1280F05D100F1F6
:1015C000080C08FA0CF8C2F8148091F803C0BCF1BA
:1015D000480F07D100F1080C4FF0010808FA0CF889
:1015E000C2F81080401C0828CED35460BDE8F081BA
:1015F0000246002093680B400BB1012000E0002060
:101600007047416170470161704700BFFEE700000D
:1016100010B54FF400510948FFF7F5FF4FF40041B2
:101620000648FFF7F0FF4FF400410448FFF7E9FFD9
:101630004FF400510148FFF7E4FF10BD000C0140DA
:1016400010B54FF400510748FFF7DDFF4FF400419C
:101650000448FFF7D6FF4FF400410248FFF7D3FFDD
:1016600010BD0000000C014010B54FF400510448BB
:10167000FFF7C9FF4FF400510148FFF7C2FF10BD4B
:10168000000C014008B50121082000F05DFAF020AF
:10169000ADF8000048208DF8030001208DF802000D
:1016A00069460248FFF719FF08BD0000000C014021
:1016B00010B5044614B10120224908702148007871
:1016C00048B310212048FFF793FF48B120211E485E
:1016D000FFF78EFF20B140211B48FFF789FFD0B9EB
:1016E0000A2000F037FE0020164908701021164825
:1016F000FFF77EFF08B9012010BD20211248FFF737
:1017000077FF08B90220F7E740210F48FFF770FF85
:10171000A8B90320F0E710210B48FFF769FF012863
:101720000DD120210848FFF763FF012807D1402190
:101730000548FFF75DFF012801D10249087000202C
:10174000DAE7000070010020000C014008B501211B
:10175000082000F0F9F94FF46070ADF80000102097
:101760008DF8030003208DF8020069460848FFF752
:10177000B4FE20210648FFF746FF00200549086017
:1017800001200549C1F89C010249091D086008BDF6
:10179000000C0140A08121420080214210B500BF11
:1017A00002210A4800F092FA0028F9D0FF210748E8
:1017B00000F098FA00BF0121044800F087FA0028E1
:1017C000F9D0024800F08BFAC0B210BD00300140E1
:1017D00000BFFEE77047000070B5002100230F2214
:1017E000C47804B3154C246804F4E064C4F5E064E0
:1017F000210AC1F10403CA40447804FA03F1847851
:101800001440214309010E4C0678A155047804F0D8
:101810001F050124AC4005786D11AD0005F1E025F0
:10182000C5F8004109E0047804F01F050124AC402C
:10183000044D0678761145F8264070BD0CED00E0A9
:1018400000E400E080E100E070B5002418E004F15D
:10185000B000002100F06BF90021084600F067F9A4
:101860000021102000F063F9002505E0012100208F
:1018700000F05DF9681CC5B2802DF7DB601CC4B2B6
:10188000082CE4DB70BD000008B50121082000F041
:101890005BF94FF42040ADF8000010208DF80300F4
:1018A00003208DF8020069463C48FFF716FE4FF40E
:1018B00020413A48FFF7A7FE4FF4487000F04AFD78
:1018C0000021AE2000F033F90021084600F02FF986
:1018D0000021102000F02BF90021402000F027F912
:1018E0000021B02000F023F90021812000F01FF931
:1018F0000021FF2000F01BF90021A12000F017F9C2
:101900000021A62000F013F90021A82000F00FF913
:1019100000213F2000F00BF90021C82000F007F95A
:101920000021D32000F003F90021084600F0FFF861
:101930000021D52000F0FBF80021802000F0F7F80E
:101940000021D82000F0F3F80021052000F0EFF886
:101950000021D92000F0EBF80021F12000F0E7F899
:101960000021DA2000F0E3F80021122000F0DFF877
:101970000021DB2000F0DBF80021302000F0D7F858
:1019800000218D2000F0D3F80021142000F0CFF8C2
:101990000021AF2000F0CBF808BD0000000C014092
:1019A00070B504460D4605F1B000002100F0BFF807
:1019B000102141EA1410002100F0B9F804F00F00E2
:1019C000002100F0B4F870BD2DE9F04707460E463F
:1019D0009046994600250024A8F12000C5B27F2F2B
:1019E00002DD0027B01CC6B2B9F1100F24D1314678
:1019F0003846FFF7D5FF002408E004EB0511194A2B
:101A0000505C012100F093F8601CC4B2082CF4DB98
:101A1000701CC1B23846FFF7C3FF002409E004EB95
:101A2000051108310F4A505C012100F080F8601C5C
:101A3000C4B2082CF3DB12E031463846FFF7B0FFA2
:101A400000240AE005EB4501074A02EB4101085D6D
:101A5000012100F06CF8601CC4B2062CF2DBBDE87A
:101A6000F08700003C2E0008142C00082DE9FF5FD1
:101A7000074691461E460E9D4FF0000A002435E0B1
:101A8000301B401EC1B20A2000F004FDB9FBF0F08B
:101A90000A21B0FBF1F201FB1208BAF1000F14D1D8
:101AA000701EA04211DDB8F1000F0CD1AB4605EB62
:101AB000DB71491001FB0471C8B22B462022019949
:101AC000FFF782FF10E04FF0010AAB4605EBDB7138
:101AD000491001FB0471C8B208F13001CAB22B46AB
:101AE0000199FFF771FF00BF601CC4B2B442C7DBAD
:101AF000BDE8FF9F2DE9F04104460F461546984684
:101B000000260FE0AA5D434639462046FFF75CFFFA
:101B100004F10800C4B2782C02DD0024B81CC7B25E
:101B2000701CC6B2A85D0028ECD1BDE8F08170B58C
:101B300004460D461DB1E0B200F0B6FB02E0E0B293
:101B400000F09CFB70BD704729B1064A92690243C0
:101B5000044B9A6104E0034A92698243014B9A6103
:101B6000704700000010024030B500210022002420
:101B700000232D4D6D6805F00C0121B1042905D01D
:101B8000082923D105E0294D056022E0274D056095
:101B90001FE0254D6D6805F47012234D6D6805F446
:101BA0008034022505EB92421CB9214D5543056056
:101BB0000BE01D4D6D6805F400351DB11C4D5543FE
:101BC000056002E0194D5543056002E0174D0560C0
:101BD00000BF00BF144D6D6805F0F0010909154DF7
:101BE0006B5C0568DD4045600F4D6D6805F4E06194
:101BF000090A104D6B5C4568DD4085600A4D6D68D3
:101C000005F46051C90A0B4D6B5C4568DD40C56049
:101C1000054D6D6805F44041890B074D6B5CC56847
:101C2000B5FBF3F5056130BD0010024000127A00EB
:101C300000093D0083010020930100201A4800683C
:101C400020B101280ED0022821D116E0002017492A
:101C5000086001201649C1F89C0100201349091DA4
:101C600008601EE001201149086000201049C1F8F9
:101C70009C010E49091D086013E000200B49086013
:101C80000B49C1F89C010949091D086009E00120C0
:101C9000064908600649C1F89C010449091D08600D
:101CA00000BF00BF7047000074010020A0812142E6
:101CB0000080214221B1028842F04002028004E00B
:101CC00002884FF6BF731A40028070470246002018
:101CD00013890B400BB1012000E000207047014642
:101CE000888970478181704710B50022028802F40C
:101CF00041520B884C8823438C882343CC88234350
:101D00000C8923434C8923438C892343CC89234367
:101D10001A430280838B4FF2FF74234083830B8A24
:101D2000038210BD00B587B0012141F20400FFF726
:101D30000BFFE020ADF8180001208DF81A001820E4
:101D40008DF81B0006A91C48FFF7C7FB1020ADF853
:101D5000180001208DF81A0010208DF81B0006A92C
:101D60001548FFF7BAFB10211348FFF74CFC002081
:101D7000ADF804004FF48270ADF806000020ADF815
:101D80000800ADF80A00ADF80C004FF40070ADF893
:101D90000E001020ADF810000020ADF81200072052
:101DA000ADF8140001A90548FFF79EFF0121034883
:101DB000FFF780FF07B000BD000801400030014080
:101DC000704710B500F002F810BD00000CB50020FF
:101DD000019000903348006840F480303149086039
:101DE00000BF3048006800F4003000900198401CAB
:101DF0000190009818B90198B0F5A06FF1D1294869
:101E0000006800F4003010B10120009001E00020D3
:101E100000900098012843D12348006840F010004A
:101E2000214908600846006820F003000860084661
:101E3000006840F0020008601A484068194948608C
:101E40000846406848600846406840F48060486042
:101E50000846406820F47C1048600846406840F41A
:101E6000E81048600846006840F08070086000BFD5
:101E70000C48006800F000700028F9D0094840685C
:101E800020F00300074948600846406840F002001F
:101E9000486000BF0348406800F00C000828F9D1F2
:101EA0000CBD00000010024000200240042808D1B0
:101EB0004FF0E021096941F004014FF0E022116187
:101EC00007E04FF0E021096921F004014FF0E02222
:101ED0001161704710B51348006840F001001149C6
:101EE000086008464068104908400E4948600846A6
:101EF00000680E4908400B4908600846006820F455
:101F0000802008600846406820F4FE0048604FF4D6
:101F10001F008860FFF755FF4FF00060044908601C
:101F200010BD0000001002400000FFF8FFFFF6FEA9
:101F300008ED00E010B50121104800F02AF8D8B1F2
:101F400001210E4800F022F80D480088401C0C4981
:101F500008800846008840F2E63188420CDD1820EF
:101F600000F028F807480078172805DB06480078B5
:101F70003A2801DBFFF752FA10BD000000100040C4
:101F8000140000201600002017000020CA4302821F
:101F9000704730B50246002000230024158A05EA68
:101FA0000103958905EA010413B10CB1012000E099
:101FB000002030BD19490988B1F57A7F07DB00217F
:101FC000164A118016490978491C154A117014499E
:101FD00009783C2907DB0021114A11701149097861
:101FE000491C104A11700F4909783C2907DB002170
:101FF0000C4A11700C490978491C0B4A11700A49A6
:102000000978814209DB182807D10021064A11709E
:1020100006490988491C054A1180704714000020B0
:102020001800002017000020160000201E000020CD
:1020300010B540F225510E4800F035F8B0B10D480A
:102040000078402802DB00200A4908700848001D7B
:102050000088C1B2074802780078401C054B187010
:10206000054881542021024800F008F810BD000006
:1020700000380140820100206002002001F400725B
:10208000B2F5007F00D100BFCA430280704721B182
:10209000828942F40052828104E082894DF6FF7306
:1020A0001A408281704770B5024600240023002543
:1020B000002040F66A16B14200D100BFC1F34215BC
:1020C00001F01F03012606FA03F3012D02D19689C0
:1020D000334006E0022D02D1168A334001E0968A91
:1020E00033400C12012606FA04F41688344013B16A
:1020F0000CB1012000E0002070BDF0B503460024C3
:1021000000260025002040F66A17B94200D100BF22
:102110001846C1F3421401F01F06012707FA06F51D
:10212000012C01D10C3004E0022C01D1103000E070
:1021300014301AB107682F43076002E00768AF4305
:102140000760F0BD2DE9F04786B005460E46002435
:10215000A24600BFA1460027B08900B100BF2F46AC
:102160002C8A4CF6FF700440F08804432C82AC8922
:102170004EF6F3100440B088318908437189084352
:102180000443AC81AC8A4FF6FF400440B08904435D
:10219000AC8201A8FFF7E8FC1F48874202D1DDF8B6
:1021A00010A001E0DDF80CA0A88900F4004040B1C7
:1021B0000AEBCA0000EB0A1031684900B0FBF1F8E5
:1021C00007E00AEBCA0000EB0A1031688900B0FB97
:1021D000F1F86420B8FBF0F004012009642101FB50
:1021E0001089A88900F4004040B1322000EBC900FA
:1021F000B0FBF1F000F00700044308E0322000EBF0
:1022000009106421B0FBF1F000F00F0004432C81B1
:1022100006B0BDE8F08700000038014000BFFEE7CF
:102220002DE9F04105462C464FF400511248FFF7C6
:10223000E8F900261CE0274607F08007802F04D12C
:1022400039020D48FFF7DFF904E04FF400410A4876
:10225000FFF7D7F96006040E4FF400510648FFF768
:10226000D2F94FF400510448FFF7CBF9701CC6B205
:10227000082EE0DBBDE8F081000C014010B50446FB
:10228000FFF7C6F97820FFF7CBFFFFF7EDF9002045
:10229000FFF7C6FFFFF7E8F92046FFF7C1FFFFF79A
:1022A000E3F9FFF7CDF910BD10B50446FFF7B0F91B
:1022B0007820FFF7B5FFFFF7D7F94020FFF7B0FF11
:1022C000FFF7D2F92046FFF7ABFFFFF7CDF9FFF795
:1022D000B7F910BD490050EAC12018BF04204A0DCB
:1022E00018BF40F0010040F2FF72B2EB515F08BF2F
:1022F00040F00200012808BF0520704730380A2846
:1023000001D20120704700207047014600BF70478E
:1023100010B56FF00400FFF7C9FD0A4800680A49CC
:10232000B0FBF1F0094908700846007800EB400165
:10233000C1EBC0104FF6FF7101EAC00004490880EC
:1023400010BD00000000002000127A00780100207B
:102350007A0100200146114A12884A434FF0E023D7
:102360005A6100229A611A46126942F001021A610A
:1023700000BF4FF0E022106900F001021AB100F432
:102380008032002AF5D04FF0E022126922F00102DB
:102390004FF0E0231A6100229A6170477A01002011
:1023A00000BF054A128802F04002002AF9D0C2B2EA
:1023B000014B1B1D1A8070470038014000F004F8E3
:1023C00001E000F0E1F8FCE710B5FFF7A1FFFFF72F
:1023D0005BFAFFF705F8FFF737FAFFF753F9FFF756
:1023E000B5F9FFF79FFC4FF4E13000F055F918A064
:1023F000FDF73EFF002426E0FFF726FA10231AA27D
:1024000004211420FFF776FBC820FFF7A3FF102359
:1024100017A204211420FFF76DFBC820FFF79AFFD5
:10242000102316A204211420FFF764FBC820FFF735
:1024300091FF102314A204211420FFF75BFBC82096
:10244000FFF788FF641C022CD6DBFFF7FDF910BDF7
:102450007765636F6D6520746F206D6178363637F0
:1024600035200D0A000000006C6F6164696E670022
:102470006C6F6164696E672E000000006C6F6164B0
:10248000696E672E2E0000006C6F6164696E672EA6
:102490002E2E000010B50246012000E050430B0034
:1024A000A1F10104E1B2F9D110BD00002DE9F84F0E
:1024B000102022490860FFF771F981464C4624023A
:1024C000FFF76CF9814610201C49091F086044EA97
:1024D000090404F0040B4FEA440A4FEA1A1A504662
:1024E00000F071F907460022154B00F07FF9054610
:1024F00000F038F90090CCB1BBF1000F0FD10020F3
:1025000010490860009800F06FFA05462A460B460D
:1025100021460DA0FDF7ACFE0098BDE8F88F012024
:102520000849086011A0FDF7A3FE05E00220054957
:10253000086011A0FDF79CFE0098EEE7140801402A
:102540000000D03F740100206F6C642064617461EE
:102550003A20253034582C20206E6F772074656D1A
:10256000703A2025342E32660D0A00006E6F206D01
:10257000617836360D0A00006D61783636373520C1
:1025800077726F6E670D0A00012411E0641C00BFB2
:1025900000F00FF80520B4FBF0F100FB114008B982
:1025A00000F01EF8641CC4F30E046420FFF7D2FE92
:1025B000ECE710B50020FFF77BF80446012C04D0AF
:1025C000022C05D0032C05D103E0FFF7FDFE05E04A
:1025D00004E003E00A20FFF7BDFE00BF00BF10BD0E
:1025E0002DE9F843FFF762FF8046224900F044FAE4
:1025F000074600F025FA0446642094FBF0F0C6B2CA
:10260000642094FBF0F100FB1140C5B2FFF716FB0C
:1026100019480078401C18490870102317A200219F
:102620000846FFF767FA102317A202212820FFF7B8
:1026300061FA102002233246042100903C20FFF76B
:1026400015FA102312A204214E20FFF753FA35B9D0
:10265000102310A204215420FFF74CFA07E01020A9
:1026600002232A46042100905420FFF7FFF9BDE819
:10267000F88300000000C84218000020204D415897
:10268000363637350000000054656D703A000000A2
:102690002E0000003030000010B586B00446012145
:1026A00044F20400FFF750FA4FF40070ADF8140044
:1026B00003208DF8160018208DF8170005A91C4876
:1026C000FEF70BFF4FF48060ADF8140004208DF886
:1026D000170005A91648FEF700FF25208DF8000019
:1026E00003208DF801008DF8020001208DF8030011
:1026F0006846FFF771F801940020ADF80800ADF8C6
:102700000A00ADF80C00ADF810000C20ADF80E007A
:1027100001A90848FFF716FD012240F2255105489E
:10272000FFF7EBFC01210348FFF7B1FC06B010BD39
:10273000000801400038014010B500290AD008788F
:10274000002807D005487844FEF74EFA002801D04B
:10275000002010BD0248784410BD0000D60D0000D6
:10276000CE0D000021F00042A2F16052B2F5801FB0
:1027700001F0004328BFD2F17F6C0BD95FEA001C47
:1027800043EAC20242EB507018BF704728BF20F0E6
:1027900001007047B2F5801FBCBF184670474FEA72
:1027A000410C1CF5001F02D2084600F02CBA70B58F
:1027B00000F0C6F800000089FFF7F6BF4FF00040B8
:1027C000A0F580007047B0FA80F310FA03F10AD048
:1027D000C3F11D0303F580634FEA41504FEA0352F2
:1027E00002EBD12170474FF000007047DFF848C17D
:1027F00070B51CEA111E1EBF1CEA13159EEA0C0FD1
:1028000095EA0C0F00F06F8081EA030423EA4C1371
:102810004EEAD47E21EA4C1141F4801143F4801336
:10282000AE44A1FB024CA0FB0365AEF17F7E3619DE
:1028300055EB0C05A1FB034C4CF10003A0FB021C63
:1028400016EB0C06654153F10003094218BF46F030
:10285000010613F4007F0BD14FEA03314FEA053034
:10286000340341EA155140EA16506FF003020AE0C2
:102870004FEAC3214FEAC520F40241EA555140EA2C
:1028800056506FF0020202EB2E4201EB025585EA30
:10289000CE710AD05FEA440C18BF24F0004450F116
:1028A000000041F1000120EAD47040F2FE7C624554
:1028B00000D270BDA84214BF4FF080444FF0404496
:1028C000002E08BF0024BEF1806FA8BFA1F1C04157
:1028D000BDE8704080F282804FF0000001F1C041FD
:1028E00001F0004170479EEA0C0F0CEA131518BF67
:1028F00095EA0C0F06D04FF0000081EA030E0EF0AF
:10290000004170BD00F01CF88900013E00F007B8DE
:1029100000F009B84FEA430C5FEA5C5C08D081EA3A
:10292000030100F05BB84FEA410C5FEA5C5CF6D152
:102930004FF00000014970470000FF070000F87FDA
:102940000EF1020E2EF0030E5EF8046B364205D433
:10295000012A43EB030515F5001F12D8012841EBAE
:10296000010C1CF5001F0CD80ED14FEAD17C15F5D7
:10297000001F0CEB4C0C0CF1020C08BF4CEBD37C91
:1029800004E04FF0080C01E04FEAD37C0CEB4C055F
:1029900026FA05F606F00706B6F1040C06D20EEB91
:1029A000860CBDE870404CF0010C6047DFE80CF08D
:1029B000090B02024FF000414FF00000A1F5002189
:1029C00070BD19461046012851EB010418BFD4F51B
:1029D000001484BF002001F0004170BD0808A0F57C
:1029E00000114FEA3101704743004FEAD30C4FEA20
:1029F0003C0C43401FBF40070CF1605113F0FE4FE9
:102A000070471CF0006F03D100200CF000417047AC
:102A10000CF0004343EA507010B540EACC0000F0DF
:102A2000ACF800BF000000924FEA0001FFF7D6BFEC
:102A30004FF000414FF00000A1F500217047000069
:102A400041000B0ED3F19E0208D950F400034FEA67
:102A5000032323FA02F048BF4042704710B500F04C
:102A60008CF800BF49922480002070476FF000422C
:102A700082EA2000704700004FF47F0C1CEAD0125D
:102A80001EBF1CEAD11392EA0C0F93EA0C0F00F060
:102A9000478090EA010F48BF42F480724FF0004C2B
:102AA0004CEA00204CEA012102EB0302A0FB0113D7
:102AB000A2F50002002918BF43F001035B0028BF04
:102AC0004FEA330342EB22425FEA132C4CEBC25035
:102AD0002EBFBCEB436FB2F57C0F70474FEA036C1F
:102AE000BCF1004F08BF20F00100B2F57C0F38BFE9
:102AF00070470BD582F0FF0212F5803FC8BF7047C8
:102B000000F1C040D8BF00F00040704700F5000C55
:102B10005FEA4C0C48BF7047B0F1C04000F073B89A
:102B200090EA010F0CEAD11348BF42F4807262456B
:102B300038BF634504D280EA010000F000407047CE
:102B400010B500F01AF800BF8900013E00F007B888
:102B500000F009B85FEA410C5FEA1C6C08D080EA1B
:102B6000010000F050B85FEA400C5FEA1C6CF6D13F
:102B70004FF00040A0F5800070470EF1020E2EF0DD
:102B8000030E5EF8044B244204D44FEA4102B2F132
:102B90007F4F11D84FEA4003B3F17F4F0CD80ED1CD
:102BA0004FEAD07CB2F17F4F0CEB4C0C0CF1020CD5
:102BB00008BF4CEBD17C04E04FF0080C01E04FEA79
:102BC000D17C0CEB4C0324FA03F404F00704B4F1B9
:102BD000040C06D20EEB840CBDE810404CF0010C46
:102BE0006047DFE80CF0070802024FF00040A0F554
:102BF000800010BD0846420018BFD2F1807288BF25
:102C000000F0004010BDFF2141EAD050C0057047E0
:102C1000FDF75EBD0000000000000000002F000076
:102C200000000700070000147F147F1400242A7F8F
:102C30002A1200626408132300364955225000000E
:102C40000503000000001C224100000041221C007E
:102C50000014083E08140008083E0808000000A000
:102C600060000008080808080000606000000020FC
:102C700010080402003E5149453E0000427F4000DA
:102C8000004261514946002141454B310018141260
:102C90007F10002745454539003C4A49493000012D
:102CA0007109050300364949493600064949291E7C
:102CB00000003636000000005636000000081422DE
:102CC00041000014141414140000412214080002DE
:102CD0000151090600324959513E007C1211127C03
:102CE000007F49494936003E41414122007F414130
:102CF000221C007F49494941007F09090901003E22
:102D00004149497A007F0808087F0000417F41005F
:102D1000002040413F01007F08142241007F4040D5
:102D20004040007F020C027F007F0408107F003EBD
:102D30004141413E007F09090906003E4151215EA3
:102D4000007F091929460046494949310001017FA0
:102D50000101003F4040403F001F2040201F003F36
:102D60004038403F006314081463000708700807E8
:102D700000615149454300007F41410000552A55FB
:102D80002A55000041417F00000402010204004076
:102D90004040404000000102040000205454547898
:102DA000007F4844443800384444442000384444B8
:102DB000487F00385454541800087E090102001856
:102DC000A4A4A47C007F080404780000447D400093
:102DD000004080847D00007F102844000000417F77
:102DE0004000007C04180478007C08040478003853
:102DF0004444443800FC242424180018242418FCDB
:102E0000007C0804040800485454542000043F4443
:102E10004020003C4040207C001C2040201C003C06
:102E20004030403C004428102844001CA0A0A07C56
:102E3000004464544C44141414141414000000008E
:102E4000000000000000000000000000000000F88A
:102E500000000000000000333000000000100C06ED
:102E6000100C0600000000000000000040C0784088
:102E7000C0784000043F04043F040400007088FC54
:102E800008300000001820FF211E0000F008F000AC
:102E9000E018000000211C031E211E0000F008881D
:102EA000700000001E2123241927211010160E0087
:102EB000000000000000000000000000000000E032
:102EC0001804020000000007182040000002041847
:102ED000E00000000040201807000000404080F0A3
:102EE000804040000202010F01020200000000F0D9
:102EF000000000000101011F0101010000000000AD
:102F00000000000080B07000000000000000000021
:102F100000000000000101010101010100000000AA
:102F20000000000000303000000000000000000041
:102F300080601804006018060100000000E010081E
:102F40000810E000000F102020100F00001010F8F3
:102F5000000000000020203F202000000070080832
:102F600008887000003028242221300000300888B2
:102F7000884830000018202020110E000000C020DA
:102F800010F8000000070424243F240000F80888FB
:102F9000880808000019212020110E0000E0108888
:102FA00088180000000F112020110E0000380808BA
:102FB000C83808000000003F0000000000708808CA
:102FC00008887000001C222121221C0000E010084B
:102FD0000810E0000000312222110F00000000C0A4
:102FE000C000000000000030300000000000008041
:102FF0000000000000008060000000000000804031
:103000002010080000010204081020004040404049
:10301000404040000404040404040400000810209C
:1030200040800000002010080402010000704808E1
:103030000808F0000000003036010000C030C82849
:10304000E810E0000718272423140B000000C03804
:10305000E0000000203C23020227382008F888887E
:1030600088700000203F202020110E00C03008088A
:1030700008083800071820202010080008F8080861
:103080000810E000203F202020100F0008F888885A
:10309000E8081000203F20202320180008F8888826
:1030A000E8081000203F200003000000C03008089E
:1030B0000838000007182020221E020008F8080027
:1030C0000008F808203F210101213F20000808F8EE
:1030D000080800000020203F202000000000080811
:1030E000F8080800C08080807F00000008F888C0D1
:1030F00028180800203F20012638200008F8080082
:1031000000000000203F20202020300008F8F800B8
:10311000F8F80800203F003F003F200008F830C0CA
:103120000008F808203F200007183F00E0100808BA
:103130000810E0000F10202020100F0008F80808E9
:103140000808F000203F210101010000E0100808FC
:103150000810E0000F18242438504F0008F8888821
:1031600088887000203F2000030C30200070880801
:10317000080838000038202121221C00180808F80F
:10318000080818000000203F2000000008F8080090
:103190000008F808001F202020201F000878880061
:1031A00000C83808000007380E010000F80800F8D1
:1031B0000008F800033C0700073C0300081868807B
:1031C0008068180820302C03032C30200838C800F1
:1031D000C83808000000203F200000001008080840
:1031E000C83808002038262120201800000000FEE2
:1031F000020202000000007F40404000000C30C08E
:1032000000000000000000010638C00000020202B9
:10321000FE000000004040407F000000000004026B
:103220000202040000000000000000000000000096
:103230000000000080808080808080800002020486
:10324000000000000000000000000000000080807E
:10325000808000000019242222223F2008F80080EC
:1032600080000000003F112020110E0000000080AF
:1032700080800000000E112020201100000000803E
:103280008088F800000E112020103F200000808070
:1032900080800000001F222222221300008080F084
:1032A000888888180020203F2020000000008080AF
:1032B00080808000006B94949493600008F80080F4
:1032C00080800000203F210000203F20008098984F
:1032D000000000000020203F2020000000000080AF
:1032E0009898000000C08080807F000008F80000EF
:1032F00080808000203F24022D302000000808F844
:10330000000000000020203F2020000080808080FE
:1033100080808000203F20003F20003F8080008090
:1033200080800000203F210000203F20000080809E
:1033300080800000001F202020201F00808000804F
:103340008000000080FFA12020110E0000000080FE
:1033500080808000000E112020A0FF8080808000EF
:103360008080800020203F2120000100000080801C
:10337000808080000033242424241900008080E011
:10338000808000000000001F2020000080800000DE
:1033900000808000001F202020103F2080808000BF
:1033A0000080808000010E300806010080800080CF
:1033B000008080800F300C030C300F0000808000F4
:1033C000808080000020312E0E312000808080001F
:1033D0000080808080818E701806010000808080CF
:1033E000808080000021302C22213000000000006D
:1033F000807C020200000000003F4040000000000E
:10340000FF00000000000000FF0000000002027C3E
:10341000800000000040403F000000000006010165
:1034200002020404000000000000000030313233CA
:1034300034353637383941424344454640305800E8
:10344000303132333435363738396162636465661A
:103450004030780004000008000000000000000276
:10346000000100001000000002400000000000A069
:103470000000000005400000000000C8000000003F
:103480000C4000000000409C0000000019400000BB
:103490000020BCBE0000000034400000BFC91B8EED
:1034A00000000004B5400000504BCFD06607E2CFCB
:1034B000010000006C4100003E8251AADFEEA734FB
:1034C00001000000D9420000DCB5A0E23A301F97AD
:1034D000FFFFFFFFB4450000FD25A0C8E9A3C14FD1
:1034E000FFFFFFFFFF3F0000000000800000000022
:1034F000FF3F000000000080000000003835000899
:1035000000000020980100006C0100080C36000843
:103510009801002068070000C80100081C00000096
:1035200043000000F8FFFFFF0C0000000E00000049
:103530000F0000002E0000001184A24A042009019F
:103540000203040607080914143B3A14E4070212A4
:103550001580084A616E75617279246A616E2A1F4E
:103560002C319D466562721D24666562321C3202F2
:10357000A64D617263684C6D6172383203A641706A
:1035800072696C1B61701C321E29897B4D616C490C
:1035900038190F29383205B54A756E651B6A758C66
:1035A00029383A061CAA6C391B6A756129382A0722
:1035B000708E7567757374704B75671C32081809C7
:1035C00053657074656D626583414C7365705432E8
:1035D000097D4F63746F1A211B6F63442938320AC7
:1035E0009C4E6F7637114C6E6F7638320BAC44655B
:1035F000631C4C64656338320C0216012D01020312
:0C3600000404100906070809020406086B
:040000050800022DC0
:00000001FF
