:020000040800F2
:10000000F81200201D020008F1180008910E0008E7
:10001000711300083D060008BF3C00080000000006
:100020000000000000000000000000000D23000898
:10003000A10C000800000000CD1F00081D340008BE
:1000400037020008370200083702000837020008AC
:10005000370200083702000837020008370200089C
:10006000370200083702000837020008370200088C
:10007000370200083702000837020008370200087C
:10008000370200083702000837020008370200086C
:10009000370200083702000837020008370200085C
:1000A000370200083702000837020008370200084C
:1000B00037020008813400083702000837020008C0
:1000C000370200083702000837020008370200082C
:1000D000370200089D3A000837020008370200087E
:1000E000370200083702000837020008370200080C
:1000F00037020008370200083702000837020008FC
:1001000037020008370200083702000837020008EB
:1001100037020008370200087D3500083702000862
:1001200037020008370200083702000837020008CB
:1001300000F002F800F063F80AA090E8000C824496
:100140008344AAF10107DA4501D100F058F8AFF273
:10015000090EBAE80F0013F0010F18BFFB1A43F0A5
:1001600001031847D84C0000F84C000010F8013B80
:100170000A4413F0030408BF10F8014B1D1108BF17
:1001800010F8015B641E05D010F8016B641E01F8C5
:10019000016BF9D1002D15D010F8014B03F00C03C1
:1001A0000C2BA1EB04040ABF10F8013BA4EB831451
:1001B000A4EB032405F1010314F8016B5B1E01F8A5
:1001C000016BF9D5914238BF10F8013BD1D370478C
:1001D0000023002400250026103A28BF78C1FBD850
:1001E000520728BF30C148BF0B607047642900F038
:1001F0007780002070471FB51FBD10B510BD00F0FF
:10020000B3F91146FFF7F7FF03F098FF00F0D1F9BB
:1002100003B4FFF7F2FF03BC03F0FEFE094880477A
:1002200009480047FEE7FEE7FEE7FEE7FEE7FEE7D8
:10023000FEE7FEE7FEE7FEE704480549054A064BF0
:10024000704700002134000831010008F80C00203C
:10025000F8120020F80E0020F80E00207047000071
:100260000FB4044910B503AA029800F04FF910BC6E
:100270005DF814FB040000202DE9F0410E46044611
:10028000002020622046E168884730B3252805D049
:10029000D4E901219047206A401CF2E7E16820463A
:1002A00000278847050018D0A5F14100192802D879
:1002B00020354FF400673246294620462760FFF775
:1002C00095FF40B1012804D0F61D26F00706083638
:1002D000D8E7361DD6E72846DAE7206ABDE8F08180
:1002E0002DE9F0410646002410687529314616A50F
:1002F00010D0AFF30080002802DA404213A507E0D7
:1003000031688A0701D512A502E0490704D511A575
:10031000012401E0AFF3008000210A2206F1240746
:1003200009E0B0FBF2FCB0FBF2F302FB1C00303042
:1003300078541846491C0028F3D123462A463046F3
:10034000BDE8F04100F089B8000000002D00000079
:100350002B0000002000000040EA010370B59B075D
:100360002ED14FF00136042A2AD308C810C99D1B8C
:100370009D43121F15EAC61517D0D8B2E1B2401A34
:1003800050EA056110D198B2A1B2401A50EA054175
:100390000AD123F07F4024F07F41401A50EA052122
:1003A00002D1180EA0EB146070BDA342DBD018BAC6
:1003B00021BA884201D9012070BD4FF0FF3070BDD5
:1003C0000AB9002070BD10F8013B11F8014B63B170
:1003D000A3420AD1521E08D010F8013B11F8014B7C
:1003E0001BB1A34201D1521EEDD1181B70BD10B537
:1003F000203AC0F00B80B1E81850203AA0E818501D
:10040000B1E81850A0E81850BFF4F5AF5FEA027CDD
:1004100024BFB1E81850A0E8185044BF18C918C04C
:10042000BDE810405FEA827C24BF51F8043B40F8ED
:10043000043B08BF7047D20728BF31F8023B48BFD2
:1004400011F8012B28BF20F8023B48BF00F8012B10
:10045000704770477047704770472DE9F0470D4669
:1004600099469246044600F124080168880604D59E
:10047000E06921F01001216000E00120A84201DDC7
:10048000471B00E00027A1697A1902EB0900081A4E
:10049000A0612078C00602D42046AFF30080002679
:1004A00008E0D4E901211AF806009047206A401CB0
:1004B000761C20624E45F4DB2078C0060AD5204623
:1004C000AFF3008006E0D4E9012130209047206A94
:1004D000401C2062381EA7F10107F4DC07E0D4E9D4
:1004E000012118F805009047206A401C2062281E50
:1004F000A5F10105F3DC2046AFF30080207800066B
:1005000002D50220BDE8F0870120FBE7074B70B55C
:100510000D467B4400F011F80446284600F020F810
:1005200010B14FF0FF3070BD204670BD0B3C000095
:1005300001694A1C02610878704700B58FB0CDE9A7
:1005400001310021059105497944CDE90310114697
:100550006846FFF791FE0FB000BD0000E5FFFFFF0A
:10056000007B00F080007047754600F029F8AE4629
:1005700005006946534620F00700854618B020B5AF
:10058000FFF75AFEBDE820404FF000064FF000078D
:100590004FF000084FF0000B21F00701AC46ACE82B
:1005A000C009ACE8C009ACE8C009ACE8C0098D4698
:1005B00070470446AFF300802046FFF729FE000095
:1005C00000487047940C002008280DD2DFE800F0A6
:1005D0000405060708090A0B06E005E004E003E04D
:1005E00002E001E000E000BF00BF704770B50446C4
:1005F00001F0EEFC054600F075FB00F063FB2846B9
:1006000000F069FB00F04EFB204600F05CFB70BD83
:1006100008B50121802001F01FFD4FF48040ADF8A6
:10062000000010208DF8030003208DF802006946B9
:10063000014800F067FB08BD001C014000BFFEE759
:1006400040B3012804D002280DD003282CD116E095
:100650000021164A11600121154AC2F88C11134A73
:100660001032116020E00121104A11600021104A6F
:10067000C2F88C1101210D4A1032116014E00121E1
:100680000A4A11600A4AC2F88C110021074A103246
:10069000116009E00121054A1160054AC2F88C1178
:1006A000024A1032116000BF00BF704784812242AD
:1006B0000080224208B50121202001F0CDFC2A2033
:1006C000ADF8000010208DF8030003208DF8020023
:1006D0006946044800F016FB2A21024800F0A8FBF6
:1006E00008BD000000140140F8B5044600250026AE
:1006F000002001F041F915220021084601F02EFAF0
:1007000016220021102001F029FA172200212020B2
:1007100001F024FA18220021302001F01FFA1922DA
:100720000021402001F01AFA102330A200215020AD
:1007300001F0FEFA102204211A2001F00FFA112212
:1007400004212E2001F00AFA1A220421422001F08D
:1007500005FA1B220421562001F000FA1C22042174
:100760006A2001F0FBF90020FFF76AFF0120204911
:1007700008604FF47A7003F087FC00201D49C1F82F
:10078000B80100211C4802F02DFF0020FFF758FFA0
:10079000601C90B9102319A200215C2001F0C8FA56
:1007A00002E0284600F09AFD002000F0F1FC05462A
:1007B0000128F6D101F0E6FAF8BD10E0102005237B
:1007C000224600210090562001F06EFA0D48007874
:1007D000864202D0641E0B48067800F01BFD002CF8
:1007E000ECD101F0CFFA00BFE6E700003A000000CC
:1007F000B881234200802342000400404E756C6C97
:10080000000000002800002070B505460C46284670
:1008100001F0ACFC064626EA0401284603F0C8FABB
:1008200070BD00000EB50121102001F0F5FB4FF066
:10083000804002F0E3FE40F2E730ADF804004720CC
:10084000ADF800000020ADF80600ADF802006946E2
:10085000094802F0E1FF0121074802F0BDFE012234
:100860001146054802F0CFFF03F0D8FB01210248F2
:1008700002F0B8FE0EBD00000010004010B50024CC
:100880001548406820F470401349486008464068A5
:1008900040F40040486004E0601CC4B2012003F052
:1008A00019FC0E48006808B1C82CF5DBC82C01DB28
:1008B000012010BD002404E0601CC4B2012003F03C
:1008C00009FC0648006808B9F02CF5DBF02C01DBC8
:1008D0000120EEE70020ECE7002001402C0124423B
:1008E0002DE9F84F00F0CCF800F0A8F8FFF7C6FFAC
:1008F000CC2000F0D1F8BE2000F0CEF800F08CF84B
:10090000834600F089F80446072C08DDE043C4B2B2
:100910006FEA0B0000F0FF0B4FF0000A01E04FF010
:10092000010AA1464FEA09200FFA80F909EB0B00F2
:100930000FFA80F9484603F0E1FD009003F0B2FDA4
:1009400007460022084B03F0AFFC054603F07CFC91
:100950000FFA80F9BAF1000F02D04846BDE8F88FCF
:10096000C9F1000000B2F9E70000E43F10B50D48FE
:10097000806940F480700B4988610B48406820F41E
:100980007040094948600846406840F4405048605B
:100990000846C06840F40060C86000F04FF8FFF7F8
:1009A0006DFF10BD001002400020014010B5174837
:1009B000406820F47040154948600846406840F49B
:1009C00040504860002012490860022003F082FB7A
:1009D00001201049C1F8AC010C48406820F4704077
:1009E0000A4948600846406840F4004048600C20CE
:1009F00003F070FB06488038006808B1012400E06D
:100A00000024322003F066FB204610BD0020014088
:100A1000AC0124420000244270B50026012508E004
:100A2000FFF7C4FF0446E00140EA6600C6B2681C56
:100A3000C5B2082DF4DD304670BD000010B50D487C
:100A4000406820F470400B4948600846406840F414
:100A50004050486000200849086040F2EE2003F052
:100A600039FB01200549C1F8AC010F2003F032FB2E
:100A700010BD000000200140AC01244200002442CF
:100A800010B5FFF7DBFFFFF7F9FECC2000F004F80C
:100A9000442000F001F810BD70B5044618484068C5
:100AA00020F47040164948600846406840F44050C1
:100AB0004860012520E004F0010664106EB10020BA
:100AC00010490860022003F005FB01200E49C1F81F
:100AD000AC013C2003F0FEFA0CE00020094908605C
:100AE0003C2003F0F7FA01200749C1F8AC010220CD
:100AF00003F0F0FA681CC5B2082DDCDD70BD000003
:100B000000200140AC0124420000244230B5324BA9
:100B10001B88642493FBF4F264235A43062859D2B9
:100B2000DFE800F0031224323E4C2B4B1B880A24D2
:100B300093FBF4F504FB153301EB810402EB440451
:100B40002344254C238045E0234B1B88642493FBDE
:100B5000F4F504FB15330A2493FBF4F303EB83034E
:100B600002EB43030B441C4C238033E01B4B1B88DC
:100B70000A2493FBF4F504FB153301EB810403EB2A
:100B80004403164C238025E0144B1B880A2493FB56
:100B9000F4F303EB830301EB4303104C238019E0D0
:100BA0000F4B1B880A2493FBF4F504FB153301EB70
:100BB000810403EB44030A4C23800BE0084B1B88A1
:100BC0000A2493FBF4F303EB830301EB4303044C8C
:100BD000238000BF00BF30BD2A0000202C00002071
:100BE0002E00002029490888C11700EB9171891057
:100BF000A0EB810139B925490988642291FBF2F300
:100C000002FB1311C1B9214909884FF4C87291FB45
:100C1000F2F302FB131139B91C490988D20091FB88
:100C2000F2F302FB131139B918490988184A91FBEC
:100C3000F2F302FB131119B91D211648016302E0FA
:100C40001C211448016314480088401EC0EBC000FA
:100C5000104901EB8000406910490988884207DA91
:100C600001200E4908800C480088401C0A49088071
:100C7000094800880C2807DD01200749088003483F
:100C80000088401C01490880704700002A000020AD
:100C900000A30200300000202C0000202E000020C5
:100CA0007047000010B50648006838B90448103095
:100CB0000068012802D10620FFF716FD10BD0000D4
:100CC00000012242704710B50446012C02D10620D3
:100CD000FFF70AFD10BD10B5044614B90620FFF752
:100CE00003FD10BD10B506480068012807D104486F
:100CF00010300068012802D1022003F0CBF810BDAB
:100D0000000122422DE9F041024600250026002084
:100D100000230024002791F803C00CF00F0591F880
:100D200003C00CF0100CBCF1000F03D091F802C00E
:100D30004CEA050591F800C0BCF1000F31D01468F1
:100D400000202BE04FF0010C0CFA00F3B1F800C0CA
:100D50000CEA03069E4220D183004FF00F0C0CFAE0
:100D600003F7BC4305FA03FC4CEA040491F803C002
:100D7000BCF1280F06D14FF0010C0CFA00FCC2F8B0
:100D800014C00AE091F803C0BCF1480F05D14FF040
:100D9000010C0CFA00FCC2F810C0401C0828D1D38A
:100DA0001460B1F800C0BCF1FF0F34DD54680020BE
:100DB0002EE000F1080C4FF0010808FA0CF3B1F82E
:100DC00000C00CEA03069E4221D183004FF00F0CB5
:100DD0000CFA03F7BC4305FA03FC4CEA040491F84F
:100DE00003C0BCF1280F05D100F1080C08FA0CF87B
:100DF000C2F8148091F803C0BCF1480F07D100F18C
:100E0000080C4FF0010808FA0CF8C2F81080401CDA
:100E10000828CED35460BDE8F081024600209368D4
:100E20000B400BB1012000E000207047416170478A
:100E30000161704708B50121102001F00DF9112062
:100E4000ADF8000028208DF8030069460148FFF73F
:100E500059FF08BD001001400B480068012802D16D
:100E60000A49086002E0002008490860064810307E
:100E70000068012803D105490831086003E000201B
:100E800002490831086070470001224298812342DC
:100E900000BFFEE710B54FF400510948FFF7C8FF47
:100EA0004FF480410648FFF7C3FF4FF480410448E8
:100EB000FFF7BCFF4FF400510148FFF7B7FF10BD2B
:100EC000000C014010B54FF400510748FFF7B0FF88
:100ED0004FF480410448FFF7A9FF4FF480410248D6
:100EE000FFF7A6FF10BD0000000C014010B54FF445
:100EF00000510448FFF79CFF4FF400510148FFF7F1
:100F000095FF10BD000C014008B50121402001F003
:100F1000A3F84FF4F060ADF8000028208DF803002E
:100F200069460948FFF7EEFE4FF4F040ADF80000C7
:100F300010208DF8030003208DF802006946024856
:100F4000FFF7E0FE08BD00000018014070B5012069
:100F5000264908700B2442E007253DE00120244A81
:100F600002EB8401C1F88001114601EB8400D0F846
:100F7000800138B301EB8500D0F8000168B11D484D
:100F8000007850B100201B490870184801781AA059
:100F9000FFF766F91548007870BD1C480068A8B9CD
:100FA0001A48001D006888B918480830006868B9F8
:100FB00016480C30006848B901200E49087000F04E
:100FC000B7F803E0214612A0FFF74AF96D1C074865
:100FD0000078401C054908700A2DBFDD641C0E2CEA
:100FE000BADD0A2003F050F80020D5E721000020E8
:100FF0000000234222000020B0B4BCFCC9A8C3E812
:10100000A3BA20256420200D0A0000001C01234201
:1010100050456F75743A494FBFDA2564CAE4B3F698
:10102000D2ECB3A3A3A120200D0A20002DE9F041AA
:1010300006460F46002400256DE0204602F0ECF83D
:10104000062C00DB0624052003F01EF8112D61D2CA
:10105000DFE805F0600910174F1E252C56333A4182
:101060005760485E580022460121304601F08EFA52
:10107000641C4FE022460221304601F087FA641CCE
:1010800048E022460321304601F080FA641C41E02A
:1010900022460421304601F079FA641C3AE02246E7
:1010A0000521304601F072FA641C33E02246062125
:1010B000304601F06BFA641C2CE0224607213046D2
:1010C00001F064FA641C25E022460821304601F054
:1010D0005DFA641C1EE022460921304601F056FAF2
:1010E000641C17E022460021304601F04FFA641CD0
:1010F00010E0641E22464121304601F047FA09E023
:1011000008E007E0002000F037FC01F0E1FF01E01B
:10111000BDE8F08100BFFFF719FF05460D288CD10F
:10112000002000F029FC01F0D3FF00BFF0E7000031
:101130000020064908600649C1F8B001034908319A
:1011400008600349C1F8B80170470000AC012342B0
:101150000000234208B50121442000F07DFF182043
:10116000ADF8000048208DF8030069460648FFF7F7
:10117000C9FD0120ADF8000028208DF80300694664
:101180000248FFF7BFFD08BD0018014000080140FC
:1011900010B5044614B101201B4908701A480078A4
:1011A00008B31A48006838B11848001F006818B121
:1011B00017480068012816D10A2002F065FF0020B8
:1011C000114908701148006808B9012010BD0F4886
:1011D000001F006808B90220F8E70D4800680128E0
:1011E00010D10320F2E70948006801280AD1074816
:1011F000001F0068012805D10548006810B90120CA
:10120000014908700020E1E720000020100123427E
:101210000001214210B500240020FFF7B9FF044669
:10122000012C02D0022C0ED104E04FF0FF30FFF76A
:101230005BFA08E00C48006808B9012000E00020D3
:101240000949086000BF00BF08480068012806D1AE
:101250000548006818B101200549086002E0002037
:101260000349086010BD0000A001002010012242C7
:101270009401244208B501214FF4C07000F0ECFE47
:101280004020ADF8000010208DF8030003208DF8F9
:10129000020069460F48FFF735FD40210D48FFF772
:1012A000C5FD4FF48070ADF8000069460948FFF7AE
:1012B00029FD4FF480710748FFF7B8FD2020ADF8F5
:1012C000000069460448FFF71DFD20210248FFF792
:1012D000ADFD08BD001C014000200140022807D1DF
:1012E0000B49096809B9012100E00021084A116091
:1012F00008490968012906D10549096819B1012180
:10130000054A116002E00021034A116070470000A5
:10131000A0010020100122429401244210B504468D
:10132000412C24D108210846FFF76EFA3D211120F7
:1013300002F03EFD8621172002F03AFD7F21262093
:1013400002F036FD1E212D2002F032FD00212C205E
:1013500002F02EFD8D212A2002F02AFD3E212B20B5
:1013600002F026FD022002F0B5FE00F01FFD10BDC8
:1013700000BFFEE770B505460026002459480078F6
:1013800005EB8501584A50545848007805EB850113
:10139000114448705648007805EB85011144887067
:1013A0005448007805EB85011144C87052A0FEF73F
:1013B00057FF002000F0E0FA102354A20021084655
:1013C00000F0B6FC082355A20221142000F0B0FC66
:1013D000082354A20221492000F0AAFC77E001F082
:1013E000FFF8E0B2022100F04FFA0A2002F04CFEB2
:1013F000112E62D2DFE806F061090F15611B21276B
:10140000452D33394D613F5B5500E0B20121FFF7B7
:10141000DBF8641C51E0E0B20221FFF7D5F8641C50
:101420004BE0E0B20321FFF7CFF8641C45E0E0B2E7
:101430000421FFF7C9F8641C3FE0E0B20521FFF783
:10144000C3F8641C39E0E0B20921FFF7BDF8641C61
:1014500033E0E0B20721FFF7B7F8641C2DE0E0B2FB
:101460000821FFF7B1F8641C27E0E0B20921FFF77B
:10147000ABF8641C21E0E0B20021FFF7A5F8641C82
:101480001BE0641C012310220521142000F094FAB3
:1014900013E0641E012310220521142000F08CFAB1
:1014A0000BE0002000F068FA01F012FE05E00020D9
:1014B00000F062FA01F06CFA00BF00BF072C00DDFB
:1014C0000024002C00DA05240A2002F0DDFDFFF7DD
:1014D0003DFD06460D2882D1002000F04DFA01F0B6
:1014E00057FA70BD2C000020680B00202E00002051
:1014F0002600002027000020C9E8D6C34368696C95
:10150000655FC4D6D6D3200D0A000000416C61721D
:101510006D205365743A204E554C4C0054494D454E
:1015200000000000444154450000000070B5002553
:1015300000244B4801884BA0FEF792FE002000F0EB
:101540001BFA10234FA20021084600F0F1FB7AE0BD
:10155000022001F013FDE0B2012100F095F90A200C
:1015600002F092FD112D64D2DFE805F063090F153A
:10157000631B2127452D33394D633F5B5500E0B296
:101580000121FFF7C3FA641C53E0E0B20221FFF728
:10159000BDFA641C4DE0E0B20321FFF7B7FA641C0A
:1015A00047E0E0B20421FFF7B1FA641C41E0E0B289
:1015B0000521FFF7ABFA641C3BE0E0B20921FFF71D
:1015C000A5FA641C35E0E0B20721FFF79FFA641C1E
:1015D0002FE0E0B20821FFF799FA641C29E0E0B29D
:1015E0000921FFF793FA641C23E0E0B20021FFF722
:1015F0008DFA641C1DE0641C0123102205211420B7
:1016000000F0DAF915E0641E0123102205211420F0
:1016100000F0D2F90DE0002000F0AEF901F058FD25
:1016200007E0641C012310220521142000F0C4F9F6
:1016300000BF00BF052C00DD0024002C00DA0524CB
:101640000A2002F021FDFFF781FC05460D287FF4FA
:101650007FAF002000F090F9002001F0E7F870BDA6
:101660002E000020C9E8D6C34368696C655FC8D501
:10167000C6DA2020446179203D20256420200D0A0F
:1016800000000000536574446174653A0000000076
:1016900070B5002500245148018851A0FEF7E0FDF7
:1016A000002000F069F9102355A20021084600F03F
:1016B0003FFB82E001F0F4FDE0B2002100F0E4F82D
:1016C0000F2002F0E1FC112D6DD2DFE805F06C096E
:1016D0000F15451B21274A2D3339526C3F645A00A0
:1016E000E0B2012102F03EF9641C5CE0E0B20221AC
:1016F00002F038F9641C56E0E0B2032102F032F93E
:10170000641C50E0E0B2042102F02CF9641C4AE0B1
:10171000E0B2052102F026F9641C44E0E0B20921A0
:1017200002F020F9641C3EE0E0B2072102F01AF951
:10173000641C38E0E0B2082102F014F9641C32E0C5
:10174000E0B2092102F00EF9641C2CE0E0B20021A5
:1017500002F008F9641C26E000212C4801F042FF49
:1017600021E0641C012310220521142000F024F93B
:1017700019E0641E012310220521142000F01CF939
:1017800011E00121214801F02DFF002000F0F4F8C4
:1017900001F09EFC07E0641C0123102205211420A7
:1017A00000F00AF900BF00BF052C00DD0024002C6A
:1017B00000DA0524142002F067FCFFF7C7FB05469A
:1017C0000D287FF477AF0121104801F00BFF0020B6
:1017D00000F0D2F8002001F029F870BD2E000020A2
:1017E000C9E8D6C3CAB1BCE4BACDC8D5C6DAA3BA73
:1017F00020446179203D20256420200D0A0000004E
:1018000053657454696D653A000000000010004093
:101810002DE9F04106460F4614461D46082C0ED110
:1018200017480088A84205DA02223946304600F0FF
:10183000C9F904E000223946304600F0C3F91148E6
:10184000844203D00F480838844216DB0C480088D5
:10185000A8420CDA642094FBF0F100FB114000F088
:10186000FF0842463946304600F078F905E0022389
:101870001A463946304600F09FF8BDE8F081000076
:10188000240000204877020070B598B004460D4649
:101890000226602213496846FEF7A9FD1248006837
:1018A000401C114908600868C11700EB117109114B
:1018B000A0EB01110A290CDA694601EB451111F878
:1018C0002410891EC8B2082308A2052100F030FAAE
:1018D00005E0012310220521142000F06DF818B056
:1018E00070BD0000C4450008800100202D000000EC
:1018F0007047000070B5002100230F22C47804B3A4
:10190000154C246804F4E064C4F5E064210AC1F1D4
:101910000403CA40447804FA03F184781440214354
:1019200009010E4C0678A155047804F01F05012426
:10193000AC4005786D11AD0005F1E025C5F800411A
:1019400009E0047804F01F050124AC40044D06783A
:10195000761145F8264070BD0CED00E000E400E093
:1019600080E100E002490143024A11607047000033
:101970000000FA050CED00E070B50646002418E002
:1019800004F1B000002100F0F0F90021084600F059
:10199000ECF90021102000F0E8F9002505E0012114
:1019A000304600F0E2F9681CC5B2802DF7DB601C00
:1019B000C4B2082CE4DB70BD2DE9F04704460E46A6
:1019C00017469846E11704EB517107EBE101102926
:1019D00007DD2046E11704EB5171C910C1F1100178
:1019E000CFB208EB0600082803DDC6F1080000F0BE
:1019F000FF08002510E04FF000090AE006EB09029D
:101A0000D1B204EBC502D0B2002200F0DBF809F13C
:101A10000109C145F2DB6D1CBD42ECDBBDE8F0877E
:101A200008B50121082000F017FB4FF4C040ADF8C5
:101A3000000010208DF8030003208DF80200694695
:101A40003B48FFF75FF94FF4C0413948FFF7F0F921
:101A5000C82002F019FB0021AE2000F086F9002119
:101A6000084600F082F90021102000F07EF90021E4
:101A7000402000F07AF90021B02000F076F9002132
:101A8000812000F072F90021FF2000F06EF90021A2
:101A9000A12000F06AF90021A62000F066F90021DB
:101AA000A82000F062F900213F2000F05EF900213B
:101AB000C82000F05AF90021D32000F056F9002187
:101AC000084600F052F90021D52000F04EF900211F
:101AD000802000F04AF90021D82000F046F90021CA
:101AE000052000F042F90021D92000F03EF9002144
:101AF000F12000F03AF90021DA2000F036F9002157
:101B0000122000F032F90021DB2000F02EF9002134
:101B1000302000F02AF900218D2000F026F9002164
:101B2000142000F022F90021AF2000F01EF908BDBA
:101B3000000C014070B504460D4605F1B0000021CF
:101B400000F013F9102141EA1410002100F00DF902
:101B500004F00F00002100F008F970BD2DE9F041FC
:101B600080460E461546002731464046FFF7E2FF05
:101B700000240AE0124A02EB8511085D012100F001
:101B8000F4F8781CC7B2601CC4B2102CF2DB701CD5
:101B9000C1B24046FFF7CEFF00240CE06900491CAB
:101BA000074A02EB4111085D012100F0DEF8781CC4
:101BB000C7B2601CC4B2102CF0DBBDE8F08100009D
:101BC000A80100202DE9F04106460F4615464FF0CA
:101BD000000839463046FFF7ADFF00240CE0084905
:101BE00001EB4511085D012100F0BFF808F101008B
:101BF00000F0FF08601CC4B2082CF0DBBDE8F081E7
:101C0000E80900202DE9F04707460E469046994620
:101C100000250024A8F12000C5B27F2F02DD002797
:101C2000B01CC6B2B9F1100F24D131463846FFF7C7
:101C300081FF002408E004EB0511194A505C0121E2
:101C400000F093F8601CC4B2082CF4DB701CC1B225
:101C50003846FFF76FFF002409E004EB0511083157
:101C60000F4A505C012100F080F8601CC4B2082CBF
:101C7000F3DB12E031463846FFF75CFF00240AE050
:101C800005EB4501074A02EB4101085D012100F027
:101C90006CF8601CC4B2062CF2DBBDE8F0870000D3
:101CA0004C480008244600082DE9FF5F074691468E
:101CB0001E460E9D4FF0000A002435E0301B401EEA
:101CC000C1B20A2002F065FAB9FBF0F00A21B0FBBC
:101CD000F1F201FB1208BAF1000F14D1701EA042FC
:101CE00011DDB8F1000F0CD1AB4605EBDB714910EB
:101CF00001FB0471C8B22B4620220199FFF782FF35
:101D000010E04FF0010AAB4605EBDB71491001FB17
:101D10000471C8B208F13001CAB22B460199FFF72D
:101D200071FF00BF601CC4B2B442C7DBBDE8FF9FB7
:101D30002DE9F04104460F461546984600260FE06F
:101D4000AA5D434639462046FFF75CFF04F10800D0
:101D5000C4B2782C02DD0024B81CC7B2701CC6B215
:101D6000A85D0028ECD1BDE8F08170B504460D46B1
:101D70001DB1E0B202F078F802E0E0B202F05EF8E5
:101D800070BD000010B50020FFF7F6FD01210648E8
:101D900001F028FC0220FEF753FC0020FFF7ECFDC9
:101DA00001F096F910BD00000004004010B51420A9
:101DB00000F0DCF9044604F0030018B903211420F4
:101DC00000F0A5FA10BD2DE9FE4F06468846914663
:101DD0009A46DDF830B00220029000200190009079
:101DE0000C2E06D00E2E09D112200190102000904A
:101DF00005E0772001903020009000E000BF00BF98
:101E0000019840F08001022001F0D2FF80210420DF
:101E1000FEF7FAFC0021012001F0CAFF80210A2010
:101E200000F075FA002505E018F80510092001F00A
:101E3000BFFF6D1C4D45F7D33146012001F0B8FFBF
:101E40000C2E03D180210D2000F061FA4FF47A7539
:101E500000BF042000F08AF904466D1E35B104F07D
:101E6000010018B9009820400028F2D080210D20F0
:101E7000FEF7CAFC95B3062000F078F900F01B00CD
:101E800068BB002002900198204000F0010008B1DA
:101E9000012002900C2E24D10A2000F067F904469C
:101EA0000C2000F063F900F007072FB1601E07EB6C
:101EB000C000CBF8000002E0E000CBF8000004B95D
:101EC0000124122C00DD1224002505E0092000F079
:101ED0004DF90AF805006D1CA542F7D301E0022078
:101EE000029080210C2000F012FA0021012001F064
:101EF0005FFF0298BDE8FE8F70B588B005460C46BE
:101F000008210846FEF780FC07210D2001F050FF54
:101F10000321142000F0FBF98DF80C5002A803AB4C
:101F2000012203A900900C20FFF74DFF06464EB991
:101F30000298102806D19DF80C0020709DF80D0025
:101F4000607000E00226304608B070BD10B5012177
:101F50001D48FEF76DFF012002F0BCF801211A4870
:101F6000FEF764FF012002F0B5F801211648FEF7E4
:101F70005FFF012002F0AEF80F21012001F018FFF1
:101F800000BF012000F0F2F800F010000028F8D1A6
:101F9000012002F09FF83D21112001F009FF1E21D0
:101FA0002D2001F005FF00212C2001F001FF8D21E3
:101FB0002A2001F0FDFE3E212B2001F0F9FE4021F8
:101FC000152001F0F5FE10BD000C01407047000027
:101FD00010B504495220FFF78FFF034908700846E7
:101FE000007810BD4C0A00208A0A002010B500F0CD
:101FF000F3F801210648FEF71BFF10210548FEF704
:1020000017FFFFF7A3FF4120FFF788F910BD00007D
:10201000000C01400008014029B1064AD269024380
:10202000044BDA6104E0034AD2698243014BDA616E
:10203000704700000010024029B1064A12690243AD
:10204000044B1A6104E0034A12698243014B1A618E
:10205000704700000010024029B1064A926902430D
:10206000044B9A6104E0034A92698243014B9A61EE
:10207000704700000010024029B1064AD2680243AE
:10208000044BDA6004E0034AD2688243014BDA6011
:10209000704700000010024030B5002100220024EB
:1020A00000232D4D6D6805F00C0121B1042905D0E8
:1020B000082923D105E0294D056022E0274D056060
:1020C0001FE0254D6D6805F47012234D6D6805F411
:1020D0008034022505EB92421CB9214D5543056021
:1020E0000BE01D4D6D6805F400351DB11C4D5543C9
:1020F000056002E0194D5543056002E0174D05608B
:1021000000BF00BF144D6D6805F0F0010909154DC1
:102110006B5C0568DD4045600F4D6D6805F4E0615E
:10212000090A104D6B5C4568DD4085600A4D6D689D
:1021300005F46051C90A0B4D6B5C4568DD40C56014
:10214000054D6D6805F44041890B074D6B5CC56812
:10215000B5FBF3F5056130BD0010024000127A00B6
:1021600000093D008B0A00209B0A002070B5044640
:102170007E2000EA440040F0800510210748FEF769
:1021800055FE284600F098F800F070F80646102139
:102190000248FEF74DFE304670BD000000080140C9
:1021A00008B501210820FFF757FF4FF40060ADF894
:1021B000000010208DF8030003208DF8020069460E
:1021C0000448FEF79FFD4FF400610248FEF72EFE23
:1021D00008BD0000000C014008B501210C20FFF7EC
:1021E0003BFF1020ADF800008DF8030003208DF8B0
:1021F000020069461B48FEF785FD2020ADF800006F
:1022000010208DF8030003208DF802006946154860
:10221000FEF778FD4020ADF8000004208DF80300A3
:1022200003208DF8020069460E48FEF76BFD802002
:10223000ADF8000010208DF8030003208DF8020097
:1022400069460848FEF75EFD0120ADF80000102049
:102250008DF8030003208DF8020069460248FEF75E
:1022600051FD08BD00080140000C014070B500257B
:102270001CE06006040E20210E48FEF7D7FD142056
:1022800001F028FF40210B48FEF7C7FD012801D1CE
:1022900044F00104142001F01DFF20210548FEF741
:1022A000C7FD142001F016FF681CC5B2082DE0DB45
:1022B000204670BD0008014070B50446002520E0AE
:1022C00004F0800020B180210F48FEF7B1FD03E04B
:1022D00080210D48FEF7AAFD142001F0FBFE20210D
:1022E0000948FEF7A3FD142001F0F4FE2021064862
:1022F000FEF79EFD142001F0EDFE6006040E681C42
:10230000C5B2082DDCDB70BD00080140704770B518
:1023100005460C462846FFF729FF064646EA040113
:10232000284601F045FD70BD10B500F001F810BD64
:102330000CB50020019000903348006840F48030D4
:102340003149086000BF3048006800F40030009058
:102350000198401C0190009818B90198B0F5A06F41
:10236000F1D12948006800F4003010B1012000903C
:1023700001E0002000900098012843D12348006824
:1023800040F01000214908600846006820F0030072
:1023900008600846006840F0020008601A4840687B
:1023A000194948600846406848600846406840F45B
:1023B000806048600846406820F47C104860084609
:1023C000406840F4E81048600846006840F08070BB
:1023D000086000BF0C48006800F000700028F9D0C9
:1023E0000948406820F003000749486008464068F3
:1023F00040F00200486000BF0348406800F00C0055
:102400000828F9D10CBD0000001002400020024055
:1024100008B5044600250020FFF7AEFA102322A2DB
:1024200000210846FFF784FC102323A2042120206A
:10243000FFF77EFC36E0FEF789FD05460A2001F035
:1024400023FE102000900223042160202268FFF761
:102450002BFCA5F10800092819D2DFE800F00518C7
:102460001818091518120D002068401C20600EE095
:102470002068401E20600AE00020FFF77DFA00F08F
:1024800027FE00F085FA00BF00F082FA00BF00BF0F
:102490002068002801DA142020602068142801DD5B
:1024A00000202060C7E700004368696C644D656EDA
:1024B000752D416C61726D00416C61726D3A200046
:1024C00000240020FFF758FA102327A20021084615
:1024D000FFF72EFC102328A202212020FFF728FC62
:1024E00041E0FEF733FD0446142001F0CDFD022348
:1024F000042219466020FFF75FFA2148007801287E
:1025000005D110231FA202216020FFF711FC1C48F7
:10251000007828B910231CA202216020FFF708FCD4
:10252000A4F1080009281DD2DFE800F0051C1C1CDE
:102530000C1A1C1813001248007880F00100104992
:1025400008700FE00E48007880F001000C49087018
:1025500008E00020FFF710FA00F0BAFD00F018FACA
:1025600000F016FA00BFBCE74368696C644D656E05
:10257000752D416C61726D00416C61726D3A200085
:10258000840100204F4E00004F464600F8B5054636
:102590000E4614460A27412E14D10020285507FB69
:1025A00004F11431C8B2022301220321FFF704FA17
:1025B00007FB04F11431C8B2022308220321FFF7FC
:1025C000FBF9F8BD2E55102000902A5D07FB04F1A1
:1025D0001431C8B201230321FFF766FB00BFF0E707
:1025E00038B50024434800780A2190FBF1F510200B
:1025F000009004F1160001232A460321FFF754FB43
:102600003C4800780A2190FBF1F201FB12051020F2
:10261000009004F1200001232A460321FFF744FB28
:1026200004F12800102334A20321FFF781FB334873
:1026300000780A2190FBF1F51020009004F13000A1
:1026400001232A460321FFF72FFB2C4800780A219B
:1026500090FBF1F201FB12051020009004F13A000A
:1026600001232A460321FFF71FFB254800880A2182
:1026700090FBF1F51020009004F1490001232A4657
:102680000321FFF711FB1E4800880A2190FBF1F29D
:1026900001FB12051020009004F1510001232A468D
:1026A0000321FFF701FB04F15900102315A20321B8
:1026B000FFF73EFB144800880A2190FBF1F510203B
:1026C000009004F1630001232A460321FFF7ECFA8E
:1026D0000D4800880A2190FBF1F201FB1205102041
:1026E000009004F16B0001232A460321FFF7DCFA76
:1026F00038BD0000260000203A000000270000201E
:102700002C0000202F0000002E000020F8B500242F
:102710000026002508E005EB85003A4908440079C9
:10272000012800D1641C6D1C142DF4DB36A0FDF7CC
:1027300097FD0020FFF720F9102200210620FFF767
:102740000DFA112200211820FFF708FA1F2200219C
:102750002A20FFF703FA202200213C20FFF7FEF990
:1027600010232DA200214E20FFF7E2FA10200223B1
:102770002246002100906020FFF796FA082327A246
:1027800003211D20FFF7D4FA082326A203214420A9
:10279000FFF7CEFA25462DE0601E00F09FF90C2EC3
:1027A00012D006DC022E09D0082E0BD00A2E16D12C
:1027B00006E00F2E10D0102E11D107E0641C0EE0A1
:1027C000641E0CE0641C0AE0641E08E00020FFF7B1
:1027D000D3F800F07DFC02E000F09AFC00BF00BFDF
:1027E000012C00DA0124681C844200DD6C1C0A20E4
:1027F00001F04AFCFEF7AAFB06460D28CCD100F0FA
:1028000087FCF8BD300C0020BEAFB1A8CAB1BCE453
:10281000B2E9D1AF200D0A003A00000054494D45FD
:102820000000000044415445000000002DE9F04143
:1028300007464FF000080224082510260020FFF765
:102840009BF810234EA200210846FFF771FA002FD3
:1028500070D1092202212020FFF780F90A220221EB
:102860003020FFF77BF9062202214020FFF776F99E
:10287000072202215020FFF771F905F12001C8B2AB
:1028800009220421FFF76AF905F13001C8B20A22D2
:102890000421FFF763F905F14001C8B20422114693
:1028A000FFF75CF905F15001C8B205220421FFF7DA
:1028B00055F906F12001C8B209220621FFF74EF9A9
:1028C00006F13001C8B20A220621FFF747F906F1E6
:1028D0004001C8B213220621FFF740F906F150016A
:1028E000C8B214220621FFF739F940E0E1B24FF4F3
:1028F0001673264A0C20FEF78BFFB8F1020F09D0A1
:10290000B8F10A0F0ED0B8F10F0F19D0B8F1100FAF
:1029100023D110E0E1B200231C4A0C20FEF778FF1F
:10292000A41E1AE0E1B20023184A0C20FEF770FF43
:10293000A41C12E022E00020FFF71EF800F0C8FB04
:10294000022C01D1FEF7A4FE042C01D1FEF7EEFD0E
:10295000062C01D100F01CF800BF00BF062C00DDE2
:102960000224022C00DA06240A2001F08DFBFEF777
:10297000EDFA80460D28B9D100F0CAFBBDE8F08120
:102980004368696C644D656E753A000048770200D3
:1029900008B5002502240020FEF7EEFF102341A217
:1029A00000210846FFF7C4F9102342A2022120208B
:1029B000FFF7BEF941480078012805D1102340A255
:1029C00002216020FFF7B4F93C48007828B91023B1
:1029D0003CA202216020FFF7ABF9102335A20421AD
:1029E0002020FFF7A5F9102002230090364804218B
:1029F00002686020FFF758F9102334A20621202036
:102A0000FFF796F94CE0FEF7A1FA0546E1B24FF464
:102A10001673314A0C20FEF7FBFE0D2D2FD004DC7F
:102A2000022D07D00A2D31D10CE00F2D17D0102D1B
:102A30002CD10FE0E1B20023274A0C20FEF7E8FE7C
:102A4000A41E23E0E1B20023234A0C20FEF7E0FE9F
:102A5000A41C1BE00020FEF78FFF00F039FB022CC6
:102A600001D1FFF72DFD042C02D11748FFF7D0FC50
:102A7000062C03D114480068FEF77CFC06E0002019
:102A8000FEF77AFF0020FFF7D1FE00BF00BF062C43
:102A900000DD0224022C00DA06240A2001F0F4FAF8
:102AA000B1E700004368696C644D656E752D416C3B
:102AB00061726D00416C61726D3A200084010020EA
:102AC0004F4E00004F4646008C010020416C617261
:102AD0006D2053657400000048770200F8B5054684
:102AE0006FF0040405EB8500FE49084480780A2154
:102AF00090FBF1F6102004F116010090C8B20123FA
:102B000032460421FFF7D0F805EB8500F54908446B
:102B100080780A2190FBF1F201FB1206102004F1EB
:102B200020010090C8B2012332460421FFF7BCF80F
:102B300004F12801C8B21023EBA20421FFF7F8F832
:102B400005EB8500E7490844C0780A2190FBF1F6BF
:102B5000102004F130010090C8B201233246042154
:102B6000FFF7A2F805EB8500DE490844C0780A218A
:102B700090FBF1F201FB1206102004F13A010090E3
:102B8000C8B2012332460421FFF78EF805EB850019
:102B9000D449085C0A2190FBF1F6102004F14901A8
:102BA0000090C8B2012332460421FFF77DF805EBFF
:102BB0008500CC49085C0A2190FBF1F201FB12066A
:102BC000102004F151010090C8B2012332460421C3
:102BD000FFF76AF804F15901C8B21023C3A2042117
:102BE000FFF7A6F805EB8500BE49084440780A21A6
:102BF00090FBF1F6102004F163010090C8B20123AC
:102C000032460421FFF750F805EB8500B54908442A
:102C100040780A2190FBF1F201FB1206102004F12A
:102C20006B010090C8B2012332460421FFF73CF843
:102C3000681E00EB8000AB49084480780A2190FBB5
:102C4000F1F6082004F11D010090C8B201233246BC
:102C50000621FFF729F8681E00EB8000A14908440F
:102C600080780A2190FBF1F201FB1206082004F1A2
:102C700025010090C8B2012332460621FFF714F85F
:102C800004F12C01C8B2082397A20621FFF750F8DF
:102C9000681E00EB800093490844C0780A2190FB2D
:102CA000F1F6082004F133010090C8B20123324646
:102CB0000621FEF7F9FF681E00EB800089490844F1
:102CC000C0780A2190FBF1F201FB1206082004F102
:102CD0003B010090C8B2012332460621FEF7E4FF13
:102CE000681E00EB80007F49085C0A2190FBF1F62A
:102CF000082004F149010090C8B2012332460621A0
:102D0000FEF7D2FF681E00EB80007649085C0A21BE
:102D100090FBF1F201FB1206082004F15101009032
:102D2000C8B2012332460621FEF7BEFF04F1580166
:102D3000C8B208236DA20621FEF7FAFF681E00EB59
:102D400080006849084440780A2190FBF1F6082089
:102D500004F15F010090C8B2012332460621FEF75C
:102D6000A3FF681E00EB80005E49084440780A21FA
:102D700090FBF1F201FB1206082004F167010090BC
:102D8000C8B2012332460621FEF78EFFA81E00EBD3
:102D900080005449084480780A2190FBF1F608200D
:102DA00004F120010090C8B2012332460721FEF74A
:102DB0007BFFA81E00EB80004A49084480780A2166
:102DC00090FBF1F201FB1206082004F127010090AC
:102DD000C8B2012332460721FEF766FF04F12D0138
:102DE000C8B2082340A20721FEF7A2FFA81E00EBED
:102DF00080003C490844C0780A2190FBF1F6082085
:102E000004F133010090C8B2012332460721FEF7D6
:102E10004BFFA81E00EB800032490844C0780A210D
:102E200090FBF1F201FB1206082004F13B01009037
:102E3000C8B2012332460721FEF736FFA81E00EB79
:102E400080002849085C0A2190FBF1F6082004F173
:102E500049010090C8B2012332460721FEF724FF42
:102E6000A81E00EB80001F49085C0A2190FBF1F2CC
:102E700001FB1206082004F150010090C8B20123A2
:102E800032460721FEF710FF04F15701C8B20823AC
:102E900016A20721FEF74CFFA81E00EB8000114987
:102EA000084440780A2190FBF1F6082004F15E0105
:102EB0000090C8B2012332460721FEF7F5FEA81E96
:102EC00000EB80000749084440780A2190FBF1F2AA
:102ED00001FB1206082004F165010090C8B201232D
:102EE000324605E0300C00203A0000002F000000C0
:102EF0000721FEF7D9FE05EB850004490844027955
:102F0000691C03A0FDF7ACF9F8BD0000300C0020EF
:102F1000CFD4CABEBEAFB1A8CAB1BCE43E3E2564A0
:102F20002020D7B4CCAC3E3E256420200D0A000002
:102F300010B5042200210620FEF710FE0522002114
:102F40001A20FEF70BFE102309A200212A20FEF70B
:102F5000EFFE082307A207215D20FEF7E9FE4FF4EC
:102F6000FA73082207215020FEF752FC10BD000022
:102F70003A0000006D656E750000000038B504462B
:102F8000012C4CD10C20042300904D4802880121D3
:102F90003620FEF789FE0C234AA201214F20FEF7BE
:102FA000C7FE494800880A2190FBF1F50C20012357
:102FB0002A46194600905620FEF776FE42480088C1
:102FC0000A2190FBF1F201FB12050C2001232A4695
:102FD000194600905D20FEF767FE0C2339A20121FF
:102FE0006420FEF7A5FE394800880A2190FBF1F520
:102FF0000C2001232A46194600906B20FEF754FE50
:10300000324800880A2190FBF1F201FB12050C20E6
:1030100001232A46194600907220FEF745FE022C35
:103020004CD110200423009025480288032115204C
:10303000FEF73AFE102323A203213620FEF778FE86
:10304000214800880A2190FBF1F5102001232A462F
:10305000032100903F20FEF727FE1B4800880A212D
:1030600090FBF1F201FB1205102001232A460321F7
:1030700000904720FEF718FE102312A203215020D3
:10308000FEF756FE114800880A2190FBF1F510204A
:1030900001232A46032100905920FEF705FE0B4824
:1030A00000880A2190FBF1F201FB12051020012398
:1030B0002A46032100906120FEF7F6FD38BD00008E
:1030C0002A0000202F0000002C0000202E000020ED
:1030D00000240020FEF750FC19E000F0E1F8012088
:1030E000FFF74CFFFFF724FF00F0C6F8FDF72EFFB7
:1030F00004460F2803D100F0E5FD00F009F8204652
:10310000FDF774FAFEF786F80A2000F0E3FFE4E723
:10311000002503240020FEF72FFC10233BA20021F2
:103120000846FEF705FE102203212020FEF716FDBB
:10313000112203213020FEF711FD1222032140202D
:10314000FEF70CFD0E2203215020FEF707FD0F2293
:1031500003216020FEF702FD0B2206212020FEF74E
:10316000FDFC0C2206213020FEF7F8FC0D22062182
:103170004020FEF7F3FC092206215020FEF7EEFC6A
:103180000A2206216020FEF7E9FC38E0E1B24FF4A4
:103190001673204A0C20FEF73BFB022D06D00A2DA9
:1031A0000CD00F2D17D0102D1FD10FE0E1B200234E
:1031B000184A0C20FEF72CFBE41C16E0E1B20023B9
:1031C000144A0C20FEF724FBE41E0EE00020FEF75C
:1031D000D3FBFFF77DFF032C01D1FFF797FA062CF5
:1031E00002D10020FFF722FB00BF00BF062C00DD4C
:1031F0000324032C00DA06240A2000F045FFFDF723
:10320000A5FE05460D28C1D1FFF762FF4D656E751D
:103210003A0000004877020070B504460A251348BA
:103220000088B0F5FA7F09DA05FB04F11431C8B261
:1032300010230FA20321FEF77BFD08E005FB04F13C
:103240001431C8B2022304220321FEF7B5FB09E0C2
:10325000A11E69431431C8B2102306A20321FEF750
:1032600067FD641E022CF3DA70BD0000240000200C
:103270005F0000002A00000038B5FDF731FB0A218D
:1032800090FBF1F41020022322460621009008460C
:10329000FEF70AFD1D2206211620FEF75FFC38BD51
:1032A00038B56FF001044D4800780A2190FBF1F524
:1032B000102004F116010090C8B201232A46032110
:1032C000FEF7F2FC454800780A2190FBF1F201FB81
:1032D0001205102004F120010090C8B201232A46F3
:1032E0000321FEF7E1FC04F12801C8B210233CA23F
:1032F0000321FEF71DFD3B4800780A2190FBF1F504
:10330000102004F130010090C8B201232A460321A5
:10331000FEF7CAFC334800780A2190FBF1F201FB6A
:103320001205102004F13A010090C8B201232A4688
:103330000321FEF7B9FC04F14201C8B2102328A210
:103340000321FEF7F5FC284800780A2190FBF1F5EF
:10335000102004F14A010090C8B201232A4603213B
:10336000FEF7A2FC204800780A2190FBF1F201FB55
:103370001205102004F154010090C8B201232A461E
:103380000321FEF791FC04F15C01C8B2082317A2E7
:103390000421FEF7CDFC16480088642190FBF1F56E
:1033A000082004F161010090C8B201232A460421DB
:1033B000FEF77AFC0E4800880A2190FBF1F090FBA2
:1033C000F1F201FB12050F2004F168010090C8B270
:1033D00001232A460421FEF767FC38BD26000020A1
:1033E0003A00000027000020280000202E000000E6
:1033F00024000020042808D14FF0E021096941F0A1
:1034000004014FF0E022116107E04FF0E02109696B
:1034100021F004014FF0E022116170477047000075
:1034200010B51348006840F00100114908600846D3
:103430004068104908400E494860084600680E4937
:1034400008400B4908600846006820F480200860A6
:103450000846406820F4FE0048604FF41F00886072
:10346000FEF762FF4FF000600449086010BD0000E5
:10347000001002400000FFF8FFFFF6FE08ED00E03C
:1034800010B50121204800F0ADF900283AD0012103
:103490001D4800F0A4F81D480068012814D11C49FB
:1034A000096809B9012100E003210846FDF7C8F8C1
:1034B0001748006808B9012000E00020144908609E
:1034C00001201449086008E00020FDF7B9F8022047
:1034D000FDF7B6F800200F4908600C48103000686E
:1034E00001280CD109480068012808D10A48006861
:1034F00008B9012000E000200749086002E0002030
:103500000549086010BD000000040040000122428F
:10351000480A0020AC812142B88123427FB505468C
:103520000C4601210220FEF777FDADF80850ADF8FA
:1035300004400020ADF80A00ADF8060001A90E48CD
:1035400000F06AF9012211460B4800F05CF91D20D9
:103550008DF8000000208DF8010003208DF8020096
:1035600001208DF803006846FEF7C4F901210248E6
:1035700000F038F87FBD00000004004010B50121C4
:10358000114800F02FF9E8B101210F4800F027F8A9
:103590000E480088401C0D4908800846008840F20B
:1035A000E63188420EDD182000F03AFA084800782B
:1035B000172805DB074800783A2801DBFDF712FBE6
:1035C000FDF74AFC10BD0000001000402400002060
:1035D0002600002027000020CA4302827047CA4309
:1035E0000282704721B1028842F00102028004E0A9
:1035F00002884FF6FE731A400280704710B50446E9
:103600006848844208D10121C014FEF735FD00212D
:10361000E014FEF731FDC4E0B4F1804F08D1012180
:103620000846FEF709FD00210120FEF705FDB8E080
:103630005D48844208D101210220FEF7FDFC0021F3
:103640000220FEF7F9FCACE05848844208D1012181
:103650000420FEF7F1FC00210420FEF7EDFCA0E0C1
:103660005348844208D101210820FEF7E5FC0021DF
:103670000820FEF7E1FC94E04E48844208D1012185
:103680001020FEF7D9FC00211020FEF7D5FC88E0C1
:103690004948844208D101212020FEF7CDFC0021B9
:1036A0002020FEF7C9FC7CE04448844208D1012177
:1036B0004014FEF7E1FC00216014FEF7DDFC70E031
:1036C0003F48844209D10121C804FEF7D5FC0021FE
:1036D0004FF40020FEF7D0FC63E03A48844209D161
:1036E00001210805FEF7C8FC00214FF48010FEF709
:1036F000C3FC56E03448844209D101214805FEF755
:10370000BBFC00214FF40010FEF7B6FC49E02F4847
:10371000844208D101214020FEF78EFC0021402088
:10372000FEF78AFC3DE02A48844208D1012180202E
:10373000FEF782FC00218020FEF77EFC31E0254868
:10374000844208D101218015FEF776FC0021A015E6
:10375000FEF772FC25E02048844209D101210804CB
:10376000FEF78AFC00214FF48030FEF785FC18E05C
:103770001A48844209D101214804FEF77DFC00214A
:103780004FF40030FEF778FC0BE01548844208D176
:1037900001218804FEF770FC00214FF48020FEF721
:1037A0006BFC10BD002C01400004004000080040EC
:1037B000000C0040001000400014004000340140A4
:1037C000004C0140005001400054014000180040EE
:1037D000001C004000200040004001400044014027
:1037E0000048014030B50246002000230024158A1D
:1037F00005EA0103958905EA010413B10CB1012022
:1038000000E0002030BD1AB183890B43838102E0C0
:1038100083898B4383817047002202881D4B984225
:103820000ED01D4B98420BD0B0F1804F08D01B4BEF
:10383000984205D01A4B984202D01A4B984204D1B4
:103840004FF68F731A404B881A43174B984207D094
:10385000164B984204D04FF6FF431A40CB881A43C8
:1038600002808B8883850B8803850A4B98420BD096
:10387000094B984208D00E4B984205D00D4B984208
:1038800002D00D4B984201D10B7A0386012383822B
:1038900070470000002C014000340140000400404B
:1038A00000080040000C00400010004000140040E0
:1038B000004001400044014000480140F0B502468C
:1038C00017480078C0EB0010164E367806EB8003E0
:1038D00001EB8100144E3044C07801EB8106124F99
:1038E0003E44B678C6EB061600EB860401EB810079
:1038F0000E4E3044C07801EB81060C4F3E44B67842
:10390000C6EB061600EB86000546012A01D1181BFE
:10391000F0BD022A01D1581BFAE700BFF8E700000A
:103920002600002027000020CC0B0020300C0020B7
:10393000002010E0142805DA002100EB8002074B7C
:103940001A441171142805DA002100EB8002044B9F
:103950001A441171401C1428ECDB7047CC0B00207A
:10396000300C002010B5062852D2DFE800F0031119
:103970001D2B3745274A12780A2392FBF3F403FBE9
:10398000142201EB810302EB4302224B1A703FE049
:10399000204A12780A2392FBF3F202EB820201EB37
:1039A00042021C4B1A7033E01B4A12780A2392FB26
:1039B000F3F403FB142201EB810302EB4302164BE9
:1039C0001A7025E0144A12780A2392FBF3F202EBF4
:1039D000820201EB4202104B1A7019E00F4A127872
:1039E0000A2392FBF3F403FB142201EB810302EBA5
:1039F00043020A4B1A700BE0084A12780A2392FB22
:103A0000F3F202EB820201EB4202044B1A7000BF98
:103A100000BF10BD26000020270000202800002045
:103A200019490988B1F57A7F07DB0021164A118010
:103A300016490978491C154A1170144909783C291E
:103A400007DB0021114A117011490978491C104AFD
:103A500011700F4909783C2907DB00210C4A1170CD
:103A60000C490978491C0B4A11700A4909788142AE
:103A700009DB182807D10021064A11700649098878
:103A8000491C054A118070472400002028000020AE
:103A900027000020260000202E00002010B540F254
:103AA00025511D4800F04AF810B31B4800F002F9F8
:103AB000C4B21A48008800F40040C8B9174800880A
:103AC00000F4804060B10A2C03D000201349088024
:103AD00020E01248008840F400401049088019E0B6
:103AE0000D2C06D10D48008840F480400B49088019
:103AF00010E00A480088C0F30D0009490C5407483B
:103B00000088401C0549088008460088C72801DD58
:103B10000020088010BD000000380140080000208F
:103B2000A00A002021B1828942F40052828104E07F
:103B300082894DF6FF731A408281704770B5024644
:103B4000002400230025002040F66A16B14200D16F
:103B500000BFC1F3421501F01F03012606FA03F36B
:103B6000012D02D19689334006E0022D02D1168A3A
:103B7000334001E0968A33400C12012606FA04F421
:103B80001688344013B10CB1012000E0002070BD54
:103B9000F0B50346002400260025002040F66A17F1
:103BA000B94200D100BF1846C1F3421401F01F060C
:103BB000012707FA06F5012C01D10C3004E0022C94
:103BC00001D1103000E014301AB107682F430760AC
:103BD00002E00768AF430760F0BD00002DE9F04741
:103BE00086B005460E460024A24600BFA146002727
:103BF000B08900B100BF2F462C8A4CF6FF700440FC
:103C0000F08804432C82AC894EF6F3100440B0884F
:103C100031890843718908430443AC81AC8A4FF66B
:103C2000FF400440B0890443AC8201A8FEF734FA97
:103C30001F48874202D1DDF810A001E0DDF80CA09A
:103C4000A88900F4004040B10AEBCA0000EB0A105A
:103C500031684900B0FBF1F807E00AEBCA0000EB5D
:103C60000A1031688900B0FBF1F86420B8FBF0F06D
:103C700004012009642101FB1089A88900F4004097
:103C800040B1322000EBC900B0FBF1F000F00700BA
:103C9000044308E0322000EB09106421B0FBF1F08E
:103CA00000F00F0004432C8106B0BDE8F08700004F
:103CB0000038014001468888C0F30800704700BF03
:103CC000FEE700001CB50020FDF756FE102325A2DC
:103CD00000210846FEF72CF8082325A207213C20E6
:103CE000FEF726F83DE006216846FDF79FF906221B
:103CF00022496846FCF730FB40B10622204968465D
:103D0000FCF72AFB10B1FEF763F950B906221B49F4
:103D10006846FCF721FB044621461AA0FCF7A0FAEE
:103D20001CBD062215496846FCF716FB04462146D1
:103D300018A0FCF795FA0223102203210020FDF7BA
:103D40003BFE102317A203212320FDF7F1FF41F2D0
:103D5000883000F099F90223082203212320FDF77F
:103D60002BFEC0E750617373576F72643A00000016
:103D7000413A44656C6574650000000090010020C4
:103D80009801002050617373204F4B203E3E256404
:103D9000200D0A0057726F6E67203E3E2564200D8D
:103DA0000A00000057726F6E672121210000000099
:103DB00070B504460D467E2000EA440610210748EF
:103DC000FDF734F83046FEF777FA2846FEF774FA26
:103DD00010210248FDF72CF870BD000000080140DA
:103DE0002DE9F04105462C464FF400511248FDF7ED
:103DF0001DF800261CE0274607F08007802F04D11D
:103E0000F9010D48FDF714F804E04FF480410A4829
:103E1000FDF70CF86006040E4FF400510648FDF75C
:103E200007F84FF400510448FDF700F8701CC6B2C3
:103E3000082EE0DBBDE8F081000C014010B504461F
:103E4000FDF728F87820FFF7CBFFFDF74FF80020AB
:103E5000FFF7C6FFFDF74AF82046FFF7C1FFFDF761
:103E600045F8FDF72FF810BD10B50446FDF712F820
:103E70007820FFF7B5FFFDF739F84020FFF7B0FFD6
:103E8000FDF734F82046FFF7ABFFFDF72FF8FDF7FD
:103E900019F810BD2DE9F041054600241E27012D1B
:103EA00059D100E0641C04EB84004A4908440079BD
:103EB000012801D1142CF5DB601EC1B22846FFF7A2
:103EC000FDFC0646214644A0FCF7CAF9314645A050
:103ED000FCF7C6F91E2E0BD2002C09DD314641A09D
:103EE000FCF7BEF921463CA0FCF7BAF9BDE8F08129
:103EF00004EB8400374908440079F8B93DA0FCF789
:103F0000AFF94048007804EB8401324A50543E48EF
:103F1000007804EB8401114448703C48007804EBBD
:103F20008401114488703A48007804EB84011144FC
:103F3000C870012004EB840111440871142C0ADBC1
:103F4000002406E0002004EB8401224A1144087199
:103F5000641C142CF6DB022D39D100E0641C04EB48
:103F600084002C4908440079012801D1142CF5DB88
:103F7000601EC1B22846FFF7A1FC1E2800D2B5E79B
:103F800004EB8400234908440079E0B91D48007817
:103F900004EB84011F4A50541B48007804EB840151
:103FA000114448701948007804EB8401114488706A
:103FB0001748007804EB84011144C870012004EB19
:103FC000840111440871142C01DBFFF7B1FC00BF20
:103FD0008CE70000CC0B002069203D202564200DDB
:103FE0000A00000074696D65203D202564200D0ADB
:103FF00000000000CAFDBEDDBCC7C2BCB3C9B9A683
:10400000200D0A002C0000202E0000202600002099
:1040100027000020300C002000BF704708B54FF487
:10402000A060FDF79FFC36208DF8000000208DF881
:1040300001008DF8020001208DF803006846FDF7AD
:1040400059FC08BD10B56FF00400FFF7D3F90A481A
:1040500000680A49B0FBF1F0094908700846007889
:1040600000EB4001C1EBC0104FF6FF7101EAC00048
:104070000449088010BD00000C00002000127A00E6
:1040800000000020020000200146114A12884A4325
:104090004FF0E0235A6100229A611A46126942F0F9
:1040A00001021A6100BF4FF0E022106900F0010226
:1040B0001AB100F48032002AF5D04FF0E0221269E4
:1040C00022F001024FF0E0231A6100229A6170474A
:1040D000020000200146114A12784A434FF0E023C3
:1040E0005A6100229A611A46126942F001021A616D
:1040F00000BF4FF0E022106900F001021AB100F495
:104100008032002AF5D04FF0E022126922F001023D
:104110004FF0E0231A6100229A61704700000020EE
:1041200000BF054A128802F04002002AF9D0C2B24C
:10413000014B1B1D1A80704700380140FFF782FFBA
:104140004FF4E13000F030F8FDF794F8FCF7B2FAE4
:10415000FDF766FCFCF766FBFCF76CFEFCF7D4FE93
:10416000FCF7F8FFFFF7E4FBFDF740FFFCF7FEFB71
:10417000FEF716F8FCF74CFA41F61F4140F2CF70FB
:10418000FFF7CCF90020FDF7F7FB01E0FEF7A0FFF9
:10419000FCE710B50246012000E050430B00A1F1FE
:1041A0000104E1B2F9D110BD10B586B00446012179
:1041B00044F20400FDF750FF4FF40070ADF8140016
:1041C00003208DF8160018208DF8170005A91C484B
:1041D000FCF798FD4FF48060ADF8140004208DF8D2
:1041E000170005A91648FCF78DFD25208DF8000065
:1041F00003208DF801008DF8020001208DF80300E6
:104200006846FDF777FB01940020ADF80800ADF893
:104210000A00ADF80C00ADF810000C20ADF80E004F
:1042200001A90848FFF7DAFC012240F225510548B0
:10423000FFF7AEFC01210348FFF774FC06B010BD88
:1042400000080140003801404FEA41034FEA535350
:10425000A3F58063D3F11E03C8BFD3F1210C0CDD9D
:104260004FF0004242EAC12242EA505232FA03FCC5
:104270008CEAE17CACEBE1707047102BC4BF0020EE
:10428000704703F5787CBCF1FF3F04D06FF000422B
:1042900082EA2100704770B500F0B0F8499224809E
:1042A00000207047F2E70000DFF848C170B51CEA53
:1042B000111E1EBF1CEA13159EEA0C0F95EA0C0F87
:1042C00000F06F8081EA030423EA4C134EEAD47EA7
:1042D00021EA4C1141F4801143F48013AE44A1FB58
:1042E000024CA0FB0365AEF17F7E361955EB0C0541
:1042F000A1FB034C4CF10003A0FB021C16EB0C06C7
:10430000654153F10003094218BF46F0010613F45A
:10431000007F0BD14FEA03314FEA0530340341EA05
:10432000155140EA16506FF003020AE04FEAC3212C
:104330004FEAC520F40241EA555140EA56506FF069
:10434000020202EB2E4201EB025585EACE710AD041
:104350005FEA440C18BF24F0004450F1000041F122
:10436000000120EAD47040F2FE7C624500D270BDAC
:10437000A84214BF4FF080444FF04044002E08BFC5
:104380000024BEF1806FA8BFA1F1C041BDE870401C
:1043900080F282804FF0000001F1C04101F0004145
:1043A00070479EEA0C0F0CEA131518BF95EA0C0F24
:1043B00006D04FF0000081EA030E0EF0004170BD00
:1043C00000F01CF88900013E00F007B800F009B8C1
:1043D0004FEA430C5FEA5C5C08D081EA030100F01D
:1043E0005BB84FEA410C5FEA5C5CF6D14FF000002D
:1043F000014970470000FF070000F87F0EF1020E30
:104400002EF0030E5EF8046B364205D4012A43EB0E
:10441000030515F5001F12D8012841EB010C1CF50E
:10442000001F0CD80ED14FEAD17C15F5001F0CEB04
:104430004C0C0CF1020C08BF4CEBD37C04E04FF0A9
:10444000080C01E04FEAD37C0CEB4C0526FA05F68C
:1044500006F00706B6F1040C06D20EEB860CBDE89A
:1044600070404CF0010C6047DFE80CF0090B0202D1
:104470004FF000414FF00000A1F5002170BD19463A
:104480001046012851EB010418BFD4F5001484BF75
:10449000002001F0004170BD0808A0F500114FEAAE
:1044A0003101704743004FEAD30C4FEA3C0C4340C4
:1044B0001FBF40070CF1605113F0FE4F70471CF016
:1044C000006F03D100200CF0004170470CF0004356
:1044D00043EA507010B540EACC0000F027F800BF66
:1044E000000000924FEA0001FFF7D6BF4FF00041F5
:1044F0004FF00000A1F500217047000010F00041CE
:1045000048BF4042B0FA80F310FA03F2C3F19D03B2
:104510000BD051EAC35101EB1220530638BF70474C
:1045200000F1010008BF20F0010070470EF1020EFB
:104530002EF0030E5EF8044B244204D44FEA4102ED
:10454000B2F17F4F11D84FEA4003B3F17F4F0CD83F
:104550000ED14FEAD07CB2F17F4F0CEB4C0C0CF13A
:10456000020C08BF4CEBD17C04E04FF0080C01E0DA
:104570004FEAD17C0CEB4C0324FA03F404F007045B
:10458000B4F1040C06D20EEB840CBDE810404CF0E4
:10459000010C6047DFE80CF0070802024FF0004012
:1045A000A0F5800010BD0846420018BFD2F180720D
:1045B00088BF00F0004010BD00030306010406029E
:1045C0000500030516000000200000003000000078
:1045D0003A0000004A000000540000000000000003
:1045E00000000000270000002F0000004100000034
:1045F000490000005B0000006300000000000000B4
:10460000000000001800000022000000320000003E
:104610003C0000004B00000053000000650000005B
:104620006D0000000000000000000000002F0000EE
:1046300000000700070000147F147F1400242A7F65
:104640002A120062640813230036495522500000E4
:104650000503000000001C224100000041221C0054
:104660000014083E08140008083E0808000000A0D6
:1046700060000008080808080000606000000020D2
:1046800010080402003E5149453E0000427F4000B0
:10469000004261514946002141454B310018141236
:1046A0007F10002745454539003C4A494930000103
:1046B0007109050300364949493600064949291E52
:1046C00000003636000000005636000000081422B4
:1046D00041000014141414140000412214080002B4
:1046E0000151090600324959513E007C1211127CD9
:1046F000007F49494936003E41414122007F414106
:10470000221C007F49494941007F09090901003EF7
:104710004149497A007F0808087F0000417F410035
:10472000002040413F01007F08142241007F4040AB
:104730004040007F020C027F007F0408107F003E93
:104740004141413E007F09090906003E4151215E79
:10475000007F091929460046494949310001017F76
:104760000101003F4040403F001F2040201F003F0C
:104770004038403F006314081463000708700807BE
:1047800000615149454300007F41410000552A55D1
:104790002A55000041417F0000040201020400404C
:1047A000404040400000010204000020545454786E
:1047B000007F48444438003844444420003844448E
:1047C000487F00385454541800087E09010200182C
:1047D000A4A4A47C007F080404780000447D400069
:1047E000004080847D00007F102844000000417F4D
:1047F0004000007C04180478007C08040478003829
:104800004444443800FC242424180018242418FCB0
:10481000007C0804040800485454542000043F4419
:104820004020003C4040207C001C2040201C003CDC
:104830004030403C004428102844001CA0A0A07C2C
:10484000004464544C441414141414140000000064
:10485000000000000000000000000000000000F860
:1048600000000000000000333000000000100C06C3
:10487000100C0600000000000000000040C078405E
:10488000C0784000043F04043F040400007088FC2A
:1048900008300000001820FF211E0000F008F00082
:1048A000E018000000211C031E211E0000F00888F3
:1048B000700000001E2123241927211010160E005D
:1048C000000000000000000000000000000000E008
:1048D000180402000000000718204000000204181D
:1048E000E00000000040201807000000404080F079
:1048F000804040000202010F01020200000000F0AF
:10490000000000000101011F010101000000000082
:104910000000000080B070000000000000000000F7
:104920000000000000010101010101010000000080
:104930000000000000303000000000000000000017
:1049400080601804006018060100000000E01008F4
:104950000810E000000F102020100F00001010F8C9
:10496000000000000020203F202000000070080808
:104970000888700000302824222130000030088888
:10498000884830000018202020110E000000C020B0
:1049900010F8000000070424243F240000F80888D1
:1049A000880808000019212020110E0000E010885E
:1049B00088180000000F112020110E000038080890
:1049C000C83808000000003F0000000000708808A0
:1049D00008887000001C222121221C0000E0100821
:1049E0000810E0000000312222110F00000000C07A
:1049F000C000000000000030300000000000008017
:104A00000000000000008060000000000000804006
:104A1000201008000001020408102000404040401F
:104A20004040400004040404040404000008102072
:104A300040800000002010080402010000704808B7
:104A40000808F0000000003036010000C030C8281F
:104A5000E810E0000718272423140B000000C038DA
:104A6000E0000000203C23020227382008F8888854
:104A700088700000203F202020110E00C030080860
:104A800008083800071820202010080008F8080837
:104A90000810E000203F202020100F0008F8888830
:104AA000E8081000203F20202320180008F88888FC
:104AB000E8081000203F200003000000C030080874
:104AC0000838000007182020221E020008F80800FD
:104AD0000008F808203F210101213F20000808F8C4
:104AE000080800000020203F2020000000000808E7
:104AF000F8080800C08080807F00000008F888C0A7
:104B000028180800203F20012638200008F8080057
:104B100000000000203F20202020300008F8F8008E
:104B2000F8F80800203F003F003F200008F830C0A0
:104B30000008F808203F200007183F00E010080890
:104B40000810E0000F10202020100F0008F80808BF
:104B50000808F000203F210101010000E0100808D2
:104B60000810E0000F18242438504F0008F88888F7
:104B700088887000203F2000030C302000708808D7
:104B8000080838000038202121221C00180808F8E5
:104B9000080818000000203F2000000008F8080066
:104BA0000008F808001F202020201F000878880037
:104BB00000C83808000007380E010000F80800F8A7
:104BC0000008F800033C0700073C03000818688051
:104BD0008068180820302C03032C30200838C800C7
:104BE000C83808000000203F200000001008080816
:104BF000C83808002038262120201800000000FEB8
:104C0000020202000000007F40404000000C30C063
:104C100000000000000000010638C000000202028F
:104C2000FE000000004040407F0000000000040241
:104C3000020204000000000000000000000000006C
:104C4000000000008080808080808080000202045C
:104C50000000000000000000000000000000808054
:104C6000808000000019242222223F2008F80080C2
:104C700080000000003F112020110E000000008085
:104C800080800000000E1120202011000000008014
:104C90008088F800000E112020103F200000808046
:104CA00080800000001F222222221300008080F05A
:104CB000888888180020203F202000000000808085
:104CC00080808000006B94949493600008F80080CA
:104CD00080800000203F210000203F200080989825
:104CE000000000000020203F202000000000008085
:104CF0009898000000C08080807F000008F80000C5
:104D000080808000203F24022D302000000808F819
:104D1000000000000020203F2020000080808080D4
:104D200080808000203F20003F20003F8080008066
:104D300080800000203F210000203F200000808074
:104D400080800000001F202020201F008080008025
:104D50008000000080FFA12020110E0000000080D4
:104D600080808000000E112020A0FF8080808000C5
:104D70008080800020203F212000010000008080F2
:104D8000808080000033242424241900008080E0E7
:104D9000808000000000001F2020000080800000B4
:104DA00000808000001F202020103F208080800095
:104DB0000080808000010E300806010080800080A5
:104DC000008080800F300C030C300F0000808000CA
:104DD000808080000020312E0E31200080808000F5
:104DE0000080808080818E701806010000808080A5
:104DF000808080000021302C222130000000000043
:104E0000807C020200000000003F404000000000E3
:104E1000FF00000000000000FF0000000002027C14
:104E2000800000000040403F00000000000601013B
:104E30000202040400000000000000005C4E0008B4
:104E400000000020A00A00006C010008E4520008E5
:104E5000A00A002058080000D0010008A20001604C
:104E600004A24A040B100C010203040607080901FE
:104E70000101196012143B3A00E407020015004AD0
:104E8000616E756172793220076A616E00001F30B1
:104E9000110D9005466562721D100766656200007F
:104EA0001C3E12020D80064D617263686A40046DFB
:104EB0006172381203388006417072696C1C13618C
:104EC000701C121E76218DA0044D6179A2226D0FF7
:104ED000213812055490054A756E651C40046A75A8
:104EE0006E3832061CA26C3940046A756C38220791
:104EF0007080067567757374704375671C12087D42
:104F0000440A53657074656D62657212400473657E
:104F1000705412091C70054F63746F1A400600002C
:104F20006F637438120A1C90044E6F763740050088
:104F30006E6F7638160B18A0044465631C40046439
:104F4000656338660C6C91A925781205C15301017F
:104F500008712013F8880122FF050312F8000113DD
:104F60001F0801227F20F0049F80F01E3380820101
:104F7000000913E2A2928A8682808042000616000F
:104F800040807F00012008FC848484FC0010010024
:104F90000410FF10103C123F191A3F380214064546
:104FA000300920102CE7242400F03E01109F11F05E
:104FB000000D13017F211100070202FF0202078288
:104FC00042FEC3031582FEA243FF40010613FF1FEA
:104FD000000D1104FF242424FF0400FE222222429B
:104FE000040F5088482F090919AF48300F02428238
:104FF0007F00000E1200F8010600F0121212F202F9
:105000000202C221B60406161F1111111F86040CDC
:1050100015183070E0E0C0C0F8F0E0C0BF117E04A9
:10502000071203030F070301DB18084042CC0040BE
:10503000A09E040405129EA02020FE080B123F90A3
:105040008840432C102846412010081715D5555785
:10505000557D04000412D51517604004407F5501AA
:10506000167F8805107F210123FC440112C40C091E
:1050700010A01C0540201806450408051340804078
:105080003F9C20042018C73D314301103F2160227E
:10509000076332FF69011121100500FE024201225F
:1050A000FA050F10C202200353601F83011482040B
:1050B0001012404424A4948C84FF848C94A424442F
:1050C0004000435F4A0106125F0035800C0914203E
:1050D000D04C4B48C80808C10318057F20101F2179
:1050E00002135F80F41012EAAFAAEA0FFA02888C6A
:1050F0005724548C846010070202EAAAAAAB02115A
:10510000010310EA02E03DB7033E9044030C041192
:1051100092A29E1F03140444827F7F1BFF80020F14
:10512000122C43200426C0E312480111C10D104087
:1051300003200880403704041464030C0413071090
:10514000E000031C062220222AF27E030E16220013
:10515000031E1F04040C041309110F41040D3E40EB
:10516000040C0E11101014D4545454FC525252D347
:1051700012C004280540405057BC19C00B115750AD
:10518000C02D020419BC2B4546C20E117C00033011
:10519000042018072239A50511200C0D1360F8070B
:1051A00004645CC4644400F800A2041806FF0020F4
:1051B0006222010712004F004DC0032DDE043DE6C0
:1051C000040915405D48040D51C0050C051C000084
:1051D000E2828005733F40010E1278C0041404106F
:1051E0001116BA15880211137E081115008181412C
:1051F0004121110D030D1121414181814008041805
:1052000022A2FA400C071508040211201FC6062C22
:105210000818242498E03010240703141038C11013
:1052200006030F181020010A1110DF1C09000609DF
:1052300009E6F80C04BD050C05130202041E8107E3
:105240003405071F302004021220E11C09020C80E3
:10525000608040300FFF03031128181F4C04027EAA
:105260000181040C05100618204080051C04905292
:1052700034C1031C06345280708F40040D1081032A
:105280001C08829A566322528E88030C0517330C31
:105290003340210601180100071A3838387C3810CD
:1052A0001F031A38FE21D92E3016C43A68D9536A22
:1052B0000B01D0791F39B0B18FA5059E0A88FF0177
:1052C0001EAA480A5F09BCB3074004078029166C70
:1052D00004000802FF086D7B0A00060002040608AD
:0452E00000000000CA
:040000050800021DD0
:00000001FF
